:020000040800F2
:10000000F8080020A10100081B0C0008170C0008CC
:10001000190C0008530600088D1A000800000000A3
:10002000000000000000000000000000310D00088A
:100030009D08000800000000310C00082F17000880
:10004000BB010008BB010008BB010008BB010008A0
:10005000BB010008BB010008BB010008BB01000890
:10006000BB010008BB010008BB010008BB01000880
:10007000BB010008BB010008BB010008BB01000870
:10008000BB010008BB010008BB010008BB01000860
:10009000BB010008BB010008BB010008BB01000850
:1000A000BB010008BB010008BB010008BB01000840
:1000B000BB010008BB010008BB010008BB01000830
:1000C000BB010008BB010008BB010008BB01000820
:1000D000BB010008BB010008BB010008BB01000810
:1000E000BB010008BB010008BB010008BB01000800
:1000F00000F002F800F045F80AA090E8000C8244F5
:100100008344AAF10107DA4501D100F03AF8AFF2D1
:10011000090EBAE80F0013F0010F18BFFB1A43F0E5
:1001200001031847001F0000201F0000103A24BFE1
:1001300078C878C1FAD8520724BF30C830C144BF4C
:1001400004680C607047000000230024002500268E
:10015000103A28BF78C1FBD8520728BF30C148BF2A
:100160000B607047642900F09780782900F0D080F8
:10017000732900F00382002070471FB51FBD10B522
:1001800010BD00F02DFA1146FFF7F7FF01F098FCC3
:1001900000F04BFA03B4FFF7F2FF03BC00F052FA91
:1001A0000948804709480047FEE7FEE7FEE7FEE70B
:1001B000FEE7FEE7FEE7FEE7FEE7FEE70448054947
:1001C000054A064B7047000031170008F10000088F
:1001D000F8020020F8080020F8040020F8040020AD
:1001E0000FB4044910B503AA029800F0CBF910BC73
:1001F0005DF814FB2000002070B504468569006896
:10020000C10601D5302600E02026C00707D070BD0A
:10021000D4E9012130469047206A401C20626D1EBF
:10022000F6D570BD70B5044685690078C00707D162
:1002300070BDD4E9012120209047206A401C206233
:100240006D1EF6D570BD70B50C460546012A05D069
:100250002878800600D5EA69002302E0012305E042
:100260005B1C934202D2E05C0028F9D1A869E61831
:10027000C01AA861286A184428622846FFF7BCFF04
:1002800004E0D5E9012114F8010B9047B442F8D3FA
:100290002846FFF7C7FF70BD2DE9F0410646002450
:1002A00010687529314616A510D0AFF300800028DC
:1002B00002DA404213A507E031688A0701D512A58A
:1002C00002E0490704D511A5012401E0AFF3008045
:1002D00000210A2206F1240709E0B0FBF2FCB0FB82
:1002E000F2F302FB1C00303078541846491C0028F9
:1002F000F3D123462A463046BDE8F04100F0D3B89A
:10030000000000002D0000002B0000002000000075
:1003100070B504460D4621461068AFF30080218871
:10032000090502D50F4A7A4402E00E4A7A440E3299
:10033000002104F1240305E000F00F060009965D9A
:100340005E54491C0028F7D120780023000704D50B
:10035000702D02D009B1022311322046BDE8704051
:1003600000F0A1B8BE1C00002DE9F05F89460446EC
:100370004FF0000ADFF824B1FB44C0F820A020466B
:10038000E168884700287DD0252806D0D4E90121DE
:100390009047206A401C2062F1E700255F46204616
:1003A000E16888472028064607DB312E05D2B819B8
:1003B00010F8200C08B10543F1E7A80701D525F096
:1003C0000405C4F81CA00027C4F818A02A2E09D0E0
:1003D000304601F05CFB38B304EB8708303EC8F8C8
:1003E000186019E059F8041B204604EB870291615C
:1003F000E1688847012F064618D1E069002820DA15
:1004000025F020051DE0D8F8180000EB800006EB71
:1004100040003038C8F818002046E1688847064692
:1004200001F035FB0028EED1012F0AD02E2E08D185
:100430002046E16888477F1C0646022F45F02005CC
:10044000C4DBA069002803DA404245F00105A06141
:10045000E80701D025F01005A6B1A6F14100192842
:1004600002D8203645F400654A46314620462560CC
:100470004D46FFF777FE60B1012807D0ED1D25F04E
:10048000070000E007E000F1080978E705F104093A
:1004900075E730467AE7206ABDE8F09F941C0000BB
:1004A0007047704770472DE9F0470D4699469246D0
:1004B000044600F124080168880604D5E06921F0AB
:1004C0001001216000E00120A84201DD471B00E08F
:1004D0000027A1697A1902EB0900081AA0612078A7
:1004E000C00602D42046FFF787FE002608E0D4E9C4
:1004F00001211AF806009047206A401C761C2062F1
:100500004E45F4DB2078C0060AD52046FFF774FE7E
:1005100006E0D4E9012130209047206A401C206287
:10052000381EA7F10107F4DC07E0D4E9012118F82F
:1005300005009047206A401C2062281EA5F1010595
:10054000F3DC2046FFF76EFE2078000602D502207D
:10055000BDE8F0870120FBE710B5436913B1AFF3A5
:10056000008001E0FFF76FFE012010BD127800F15E
:1005700024010A7000224A700122EDE711684FF051
:10058000FF32E9E7074B70B50D467B4400F011F8E8
:100590000446284600F020F810B14FF0FF3070BD3F
:1005A000204670BD0F15000001694A1C02610878E1
:1005B000704700B58FB0CDE90131002105910549A3
:1005C0007944CDE9031011466846FFF7CDFE0FB020
:1005D00000BD0000E5FFFFFF007B00F080007047DA
:1005E000754600F02BF8AE4605006946534620F0EC
:1005F0000700854618B020B5FFF7E0FDBDE82040B4
:100600004FF000064FF000074FF000084FF0000BCE
:1006100021F00701AC46ACE8C009ACE8C009ACE881
:10062000C009ACE8C0098D46704710B50446AFF369
:1006300000802046BDE81040FFF7ACBD0048704781
:100640009402002001491820ABBEFEE726000200FC
:100650007047FEE72DE9F0431E4CDFF874C00D46ED
:10066000A1788CF80010E6788CF801602178677822
:1006700094F802800CF10202082300BF10F0800FF2
:1006800019BF82F800805670117057704006000E36
:10069000921C5B1EF2D10921604600F0CFF822794E
:1006A000E178A07800F070F828600B486279016862
:1006B00021F470410160016841F400410160074983
:1006C0000020088008889042FCD30020BDE8F08319
:1006D0004002002038000020000C0140242C014082
:1006E0002DE9F0430246254C2348A378037094F883
:1006F00003C080F801C042F00103821C26786778AD
:1007000094F80280082500BF13F0800F19BF82F80B
:10071000008082F801C0167057705B061B0E921C99
:100720006D1EF1D194F800C06578A678E77800F1E5
:100730001202202311F0004F19BF1670577082F873
:1007400000C055704900921C5B1EF3D1292100F0B6
:1007500075F80B486179026822F470420260026801
:1007600042F40042026007480022028002888A4266
:10077000FCD30020BDE8F0834002002038000020B8
:10078000000C0140242C01402DE9F0030346002019
:10079000202472B60827DFF89080244DDFF890906F
:1007A00024490646D5F800C02CF4704CC5F800C0AA
:1007B000D5F800C04CF4405CC5F800C0C8F8007023
:1007C00040000E80B1F800C09C45FBD3D5F800C0B6
:1007D0002CF4704CC5F800C0D5F800C04CF4004CA7
:1007E000C5F800C0D9F800C01CF0080F14BF401CA9
:1007F0000E8013D0A4F1010C1FFA8CF4002CD1D17F
:1008000062B60D490F60296821F47041296029689A
:1008100041F440512960BDE8F0037047B1F800C0D1
:100820009445FBD3E6E70000140C0140000C0140A6
:10083000080C0140242C0140100C0140F0B472B6A9
:10084000134A136823F470431360136843F440534E
:100850001360104E002408250F4A371F356014809E
:1008600090F80030B2F800C09C45FBD33D60148086
:1008700010F8013FB2F800C09C45FBD3401C491E54
:100880000904090CEAD162B60020F0BC70470000F0
:10089000000C0140140C0140242C01407047000062
:1008A00010B56FF0040000F037FF094809490068EF
:1008B000B0FBF1F0C1B2084801EB41020170C2EB9C
:1008C000C1114FF6FF7202EAC101418010BD000064
:1008D0000800002000127A001C0000200C49498802
:1008E00041434FF0E020416100238361016941F001
:1008F00001010161016911F0010F02D011F4803F83
:10090000F8D0016921F001010161836170470000A5
:100910001C000020F8B50E461D4C07464FF48031F0
:100920006D4602222046009100F078FC002818BF96
:10093000F8BD02223146384600F070FC002818BF8E
:10094000F8BD0098022240F480212046009100F07A
:1009500065FC00280CBF0F4EF8BD02222946304628
:1009600000F04AFB009A12F0010FF6D1022229464C
:10097000204600F041FB002818BFF8BD0098022275
:1009800020F480312046009100F048FCF8BD0000C2
:10099000102002400C200240F8B5194C4FF4803171
:1009A0006D4602222046009100F038FC002818BF56
:1009B000F8BD0098022240F400212046009100F08A
:1009C0002DFC00280CBF0F4EF8BD022229463046F0
:1009D00000F012FB009A12F0010FF6D10222294614
:1009E000204600F009FB002818BFF8BD009802223D
:1009F00020F480312046009100F010FCF8BD00008A
:100A0000102002400C200240F8B51D4C06464FF461
:100A100000316D4602222046009100F0FFFB0028C5
:100A200018BFF8BD02223146164800F0F7FB002837
:100A300018BFF8BD0098022240F040012046009106
:100A400000F0ECFB00280CBF0F4EF8BD0222294637
:100A5000304600F0D1FA009810F0010FF6D10222D2
:100A60002946204600F0C8FA002818BFF8BD0098B3
:100A7000022220F400312046009100F0CFFBF8BDA7
:100A800010200240142002400C20024070B5114C8E
:100A9000114E02222146304600F0C0FB002818BF4C
:100AA00070BD02220D4D3046294600F0B7FB0028EC
:100AB00018BF70BD02222146094C204600F0AEFB53
:100AC000002818BF70BD022229462046BDE87040AC
:100AD00000F0A4BB2301674504200240AB89EFCDA1
:100AE00024200240F8B51D4C06464FF480316D4677
:100AF00002222046009100F091FB002818BFF8BDAB
:100B000002223146164800F089FB002818BFF8BDC4
:100B10000098022240F040012046009100F07EFB48
:100B200000280CBF0F4EF8BD02222946304600F0C7
:100B300063FA009810F0010FF6D1022229462046F0
:100B400000F05AFA002818BFF8BD0098022220F4DD
:100B500080312046009100F061FBF8BD102002407A
:100B6000142002400C2002402DE9F001CB78002235
:100B700003F00F0C13F0100F1CBF8B7843EA0C0C22
:100B80000B784FF00F0613F0FF0F4FF0010518BF61
:100B9000046819D00F8805FA02F31F409F420FD155
:100BA000970006FA07F824EA08040CFA07F73C4312
:100BB000CF78282F08BF436102D0482F08BF0361B8
:100BC000521C082AE6D304600A88FF2A87BF4468BB
:100BD0000022BDE8F001704702F108030F8805FA12
:100BE00003F31F409F420FD1970006FA07F824EA4B
:100BF00008040CFA07F73C43CF78282F08BF43615D
:100C0000CF78482F08BF0361521C082AE4D3446000
:100C1000BDE8F0017047FEE7FEE77047034940F08A
:100C2000FD7040F080600860704700000CED00E04F
:100C300070470000044A0029116914BF084321EAE3
:100C4000000010617047000000100240044A0029B3
:100C5000916914BF084321EA0000906170470000C9
:100C600000100240044A0029D16814BF084321EA59
:100C70000000D0607047000000100240264910B408
:100C80004A6812F00C03254A18BF042B01D0082B28
:100C900001D002601AE04A684B6802F470124FF00B
:100CA000020C13F4803F0CEB924207D04B6813F414
:100CB000003F08D01A4B5A43026007E0194B1B68EB
:100CC00013F0100FF6D0154B5A4302604A680F23F9
:100CD00003EA1212144B9A5CD0F800C02CFA02FC02
:100CE000C0F804C04A68072404EA12229A5C2CFA6D
:100CF00002F282604A6804EAD2229A5C2CFA02F27A
:100D0000C2604968032303EA9131084B595CB2FB86
:100D1000F1F1016110BC70470010024000127A002E
:100D200000093D0000380240280000202400002077
:100D3000704738B500200446009069462C20FFF724
:100D400089FC002818BF38BD009810F4805F0BD0D4
:100D50000120FFF7C3FD601CC4B2C82CEDD3C82C22
:100D60000CBFEF20002038BD0098C0F30220009097
:100D70000028F4D04FF0FF312C20FFF7B1FC009891
:100D8000C0B238BDF8B50D4606460024694622209B
:100D9000FFF760FC002818BFF8BD0098B0F1FF3FD6
:100DA00002D03040A84206D00320FFF797FD601C18
:100DB000C4B2C82CEAD304A00099FFF711FAC82CDA
:100DC0000CBFEF200020F8BD444D53544154533A1A
:100DD00025303878200D0A0030B583B0002000900F
:100DE00001210820FFF732FF0824ADF80040102051
:100DF0008DF8030003208DF8020069461348FFF7C1
:100E0000B3FE134D2C600520FFF768FD281D04601C
:100E10001420FFF763FD2C600E4CFC202146FFF7E9
:100E20005FFC2146FA20FFF75BFC01A9F820FFF7E1
:100E300011FC09A00199FFF7D3F90198A0F58231BF
:100E4000C91E14BF0120002003B030BD000C0140BA
:100E5000100C01400004A55A434150525F535441C5
:100E6000303A253038780D0A00000000F8B51F4CE4
:100E700020202146FFF734FC002818BFF8BD21468A
:100E80002020FFF72DFC002818BFF8BD01212020ED
:100E9000FFF726FC002818BFF8BD15492020FFF7F2
:100EA0001FFC002818BFF8BD4FF4406635460024EB
:100EB00069462220FFF7CEFB002818BFF8BD009836
:100EC000B0F1FF3F02D03040A84206D00320FFF728
:100ED00005FD601CC4B2C82CEAD306480099FFF790
:100EE0007FF9C82C0CBFEF200020F8BD0100008066
:100EF00001000040C80D000870B582B000200090CD
:100F000001210820FFF7A2FE0825ADF800501020AF
:100F10008DF8030003208DF8020069463048FFF782
:100F200023FE304C25600520FFF7D8FC201D05600E
:100F30001420FFF7D3FC25602B4CFC202146FFF743
:100F4000CFFB2146FA20FFF7CBFB01A9F820FFF7E2
:100F500081FB26480199FFF743F90198A0F58231FA
:100F6000C91E1EBF012002B070BD214C20202146A9
:100F7000FFF7B6FB00281CBF02B070BD2146202041
:100F8000FFF7AEFB00281CBF02B070BD4FF44076E7
:100F90003546002469462220FFF75CFB00281CBF71
:100FA00002B070BD0098B0F1FF3F02D03040A842BF
:100FB00006D00320FFF792FC601CC4B2C82CE9D312
:100FC0000C480099FFF70CF9C82C02BFEF2002B0C3
:100FD00070BD012102B02020BDE87040FFF780BB4A
:100FE000000C0140100C01400004A55A580E0008E6
:100FF00001000080C80D00082DE9F047174689461A
:101000008046402641460A20FFF76AFB002818BFA9
:10101000BDE8F087022F08BF124C03D0012F0CBF90
:10102000114C124C5FF0000506EB450054F8041B10
:10103000C0B2FFF755FB681CC5B2082DF4D34FF4BE
:1010400080212E20FFF74CFB002818BFBDE8F08759
:10105000FFF76FFE0028D5D14946BDE8F0470820CC
:10106000FFF7F8BA081F0008281F0008481F0008EB
:101070002DE9F74F82B05D4C0398DFF87481DFF8FB
:10108000749100884FF0000B401EADF800000A205C
:101090000299FFF725FB00281CBF05B0BDE8F08FC3
:1010A000BDF8000000287DD001213020FFF718FB9B
:1010B00000281CBF05B0BDE8F08F4F4E002540272B
:1010C00007EB450056F8041BC0B2FFF709FB681C8C
:1010D000C5B2082DF4D34FF480212E20FFF700FB7A
:1010E00000281CBF05B0BDE8F08F08200499CDF89A
:1010F00004D0BDF800A00D1DFFF7ACFA0120ADF83B
:1011000000000646BAF1010F26D93C4821782F4647
:101110000170617841702D1D0121FFF78FFB22794D
:10112000E178A078FFF730FB38606079D8F80010DC
:1011300021F47041C8F80010D8F8001041F40041C3
:10114000C8F80010A9F800B0B9F800108142FBD32C
:10115000701C86B25645D8D3019806800398BDF816
:101160000010018000213020FFF7BAFA00281CBFD0
:1011700005B0BDE8F08FFFF7DCFD002887D1BDF892
:101180000010049800EB81010820FFF763FA0028A3
:101190001CBF05B0BDE8F08FBDF80010039A491CD4
:1011A000118000E002E005B0BDE8F08F144E00258C
:1011B0005FF0400707EB450056F8041BC0B2FFF78D
:1011C0008FFA681CC5B2082DF4D34FF480212E206D
:1011D000FFF786FA0028E4D1FFF7ABFD00287FF483
:1011E00056AF08200499FFF735FADAE738000020F7
:1011F000000C0140242C0140C81F000840020020C0
:10120000081F000810B502220249034800F006F842
:10121000002010BD8000EFBE48E000E070B505463C
:1012200014460820FFF75CFA002818BF70BD294655
:101230000A20FFF755FA002818BF70BD022C08BF1E
:101240000F4C03D0012C0CBF0E4C0F4C0025402638
:1012500006EB450054F8041BC0B2FFF741FA681CC6
:10126000C5B2082DF4D34FF480212E20FFF738FAB1
:10127000002818BF70BDBDE87040FFF75ABD0000E0
:10128000681F0008881F0008A81F00082DE9F04FFC
:101290000546088883B0401EADF800008946144614
:1012A00008201168FFF71CFA00281CBF03B0BDE836
:1012B000F08F4FF00108A9F80080BDF8000040272A
:1012C00000287DD045F001010A20FFF709FA002827
:1012D00007BF544E002503B0BDE8F08F56F8041B3D
:1012E00007EB4500C0B2FFF7FBF9681CC5B2082D3B
:1012F000F4D34FF480212E20FFF7F2F900281CBF11
:1013000003B0BDE8F08FFFF714FD00281CBF03B049
:10131000BDE8F08F01213020FFF7E2F900281CBF63
:1013200003B0BDE8F08F0820CDF804D06168BDF8A7
:1013300000A00834FFF7D4F90126ADF800804FF083
:10134000000BBAF1010F39D9374D384FDFF8E08083
:10135000384B54F8041B2878187068785870981C1B
:101360005FF0200211F0004F14BF95F802C095F80D
:1013700000C080F800C014BF95F803C095F801C004
:1013800080F801C04900801C521EEBD12121184673
:10139000FFF754FA6879396821F470413960396887
:1013A00041F400413960A8F800B000BFB8F800105F
:1013B0008142FBD3701C86B25645C9D3019800E028
:1013C0000CE00680BDF800000021401CA9F80000D8
:1013D0003020FFF785F903B0BDE8F08F29460A20D9
:1013E000FFF77EF9002807BF134D002403B0BDE8C6
:1013F000F08F00BF07EB440055F8041BC0B2FFF7A5
:101400006FF9601CC4B2082CF4D34FF480212E2055
:10141000FFF766F9002808BFFFF78BFC03B0BDE8B3
:10142000F08F0000C81F000838000020000C0140A9
:10143000242C014040020020681F0008F8B5504CE1
:10144000504E022221463046FFF7E8FE002818BF22
:10145000F8BD02224C4D30462946FFF7DFFE00283A
:1014600018BFF8BD0222494E21463046FFF7D6FE8E
:10147000002818BFF8BD022229463046FFF7CEFEED
:10148000002818BFF8BD02222146414C2046FFF734
:10149000C5FE002818BFF8BD022229462046FFF7E6
:1014A000BDFE002818BFF8BD02223A4D6946284605
:1014B000FFF7A2FD002818BFF8BD0098022240F0F7
:1014C00020012846FFF7AAFE002818BFF8BD022217
:1014D00069462846FFF790FD002818BFF8BD009820
:1014E000022240F040012846FFF798FE00280CBF7A
:1014F000294EF8BD022269463046FFF77DFD040003
:1015000005D0014625A0FEF76BFE2046F8BD0098E9
:1015100010F0010FEED10222694634463046FFF743
:101520006BFD002818BFF8BD0098022240F0200192
:101530002046FFF773FE002818BFF8BD0222694657
:101540002846FFF759FD002818BFF8BD0098022271
:1015500020F020012846FFF761FE002818BFF8BDE3
:10156000022269462846FFF747FD002818BFF8BD4C
:101570000098022220F400712846FFF74FFEF8BDC4
:101580002301674504200240AB89EFCD24200240AF
:1015900008200240102002400C200240666C61735B
:1015A0006820627573792025780A00002DE9F04FD4
:1015B00083B0002082460090FFF740FF4C4DDFF8DB
:1015C00034814D4CDFF834914D4EDFF838B12F1D8A
:1015D000022221462846FFF721FE80B90222494611
:1015E0002846FFF71BFE50B9022221464046FFF76E
:1015F00015FE20B9022249464046FFF70FFE02229F
:1016000021463846FFF70AFE00281CBF03B0BDE89C
:10161000F08F022249463846FFF700FE00281CBF23
:1016200003B0BDE8F08F022269463046FFF7E4FCC4
:1016300000281CBF03B0BDE8F08F0098022240F0E4
:1016400010013046FFF7EAFD00281CBF03B0BDE8DB
:10165000F08F012245F6A5215846FFF7DFFDFFF781
:1016600068FB0146019028A0FEF7BAFD019868B119
:10167000BAF1050F24BF03B0BDE8F08F0AF10100F5
:1016800000F0FF0A0120FFF729F9A1E7214C02220F
:1016900069462046FFF7B0FC009810F0010FF6D124
:1016A000022269462046FFF7A7FC0098022240F07C
:1016B00020012046FFF7B2FD022269463046FFF7BF
:1016C0009BFC0098022220F010013046FFF7A6FD97
:1016D000022269463046FFF78FFC0098022220F470
:1016E00000713046FFF79AFD03B00020BDE8F08F8F
:1016F000042002402420024023016745AB89EFCD3E
:101700001020024000F8FF1F2D2D733A25780D0A96
:10171000000000000C2002404FF0E021042808697E
:101720000CBF40F0040020F00400086170477047CF
:10173000374882B0016841F0010101604168354AD3
:1017400011404160016821F4102121F08071016095
:10175000016821F480210160416821F4FE014160AB
:101760004FF41F018160002201920092016841F450
:1017700080310160016801F4003100910199491C38
:101780000191009919B90199B1F5A06FF2D10168E1
:1017900011F4003F08BF009233D0012100911E498F
:1017A0000A6842F010020A600A6822F003020A6026
:1017B0000A6842F002020A60416841604168416083
:1017C000416841F480614160416821F47C114160CD
:1017D000416841F4E8114160016841F080710160A5
:1017E000016811F0007FFBD0416821F003014160E6
:1017F000416841F002014160416801F00C01082993
:10180000FAD106494FF00060086002B0704700004E
:10181000001002400000FFF80020024008ED00E048
:101820000029018814BF41F0010121F0010101806C
:10183000704710B5A0F18041B1F5963117D0B0F1E5
:10184000804F29D0A0F18041B1F580611AD0A0F17C
:101850008041B1F5006118BF10BD01210420FFF7E0
:10186000E9F90021BDE810400420FFF7E3B90121A8
:10187000C802FFF7F7F9BDE8104000214FF40060FF
:10188000FFF7F0B901210220FFF7D4F90021BDE8EC
:1018900010400220FFF7CEB901210846FFF7CAF930
:1018A0000021BDE810400120FFF7C4B90288144BA5
:1018B000984218BFB0F1804F09D0A0F1804CBCF520
:1018C000806C1CBFA0F1804CBCF5006C05D1B1F858
:1018D00002C022F070024CEA0202B1F806C022F403
:1018E00040724CEA020202808A8882850A88028558
:1018F000984204BF097A0186012181827047000065
:10190000002C014030B583B000240F4D00940194A9
:1019100028460294FFF78DFF0121C802FFF796F9D0
:101920004FF6FF70ADF80400ADF80040ADF806408A
:10193000ADF8024069462846FFF7B8FF0121284666
:10194000FFF76EFF03B030BD002C014000298189F4
:1019500014BF41F4005121F40051818170470246C7
:10196000002012880A4218BF0120704730B5044693
:10197000008A85B00D464CF6FF710840E98808439F
:101980002082A0894EF6F3110840A9882A891143C4
:101990006A8910430843A081A08A4FF6FF4108409E
:1019A000A9890843A0826846FFF768F9A4F180403E
:1019B000B0F59C300CBF03980298A18911F4004F38
:1019C00000EBC00101EB0010296814BF4900890039
:1019D000B0FBF1F0114A6FF0180CA2FB003149097D
:1019E00009010B0903FB0CF300EB8300A38913F43B
:1019F000004F4FF0320314BF03EBC00003EB0010A5
:101A0000A2FB00204FEA501014BF00F0070000F0C6
:101A10000F000843208105B030BD00001F85EB5149
:101A200010B5044686B0012144F20400FFF70EF918
:101A30004FF40070ADF8100003208DF8120018204C
:101A40008DF8130004A90D48FFF78EF80020ADF8BB
:101A500004000094ADF80600ADF80800ADF80C00E5
:101A60000820074CADF80A0069462046FFF77EFFC4
:101A700001212046FFF76AFF06B010BD00080140B3
:101A800000380140C1F3080181807047FEE730381B
:101A90000A2801D2012070470020704770B5074D19
:101AA000044640212846FFF75AFF0028F9D0E1B24A
:101AB0002846FFF7E7FF204670BD000000380140D0
:101AC00000244FF4A060FFF7A9F8FEF7E9FE4FF4F9
:101AD000E130FFF7A5FFFFF715FF9B4801689BA0CA
:101AE000FEF77EFB9DA2A0A1A2A0FEF779FB4FF41A
:101AF0007A70FEF7F3FEA84DA84F2B88E3B1391F8B
:101B00000020A74A13F0010F02D041F8042F012052
:101B1000C3F34704002C18BFA24B0DD000EB020CFE
:101B2000C1F804C000EB030C41F808CFA4F1010C8C
:101B3000801C1CF0FF04F1D1FFF74EF9002818BFFC
:101B400099A034D19FA0FEF74BFBFFF7D5F918B150
:101B50009FA0FEF745FBFEE7A0A0FEF741FB8F4AE2
:101B60008D494FF00050FFF791FB00281CBF9FA04C
:101B7000FEF736FBA14A88494FF00050FFF778FA8C
:101B8000B8B92888002888BF9C4E0FD914F0070FD9
:101B900004BF71A0FEF724FB56F8241098A0FEF7AE
:101BA0001FFB601CC4B228888442EFD36AA0FEF7F2
:101BB00017FB95A0FEF714FB02229F499F48FFF7F1
:101BC0001BFA18B99EA06968FEF70AFB287910F085
:101BD000030F12D09DA0FEF703FBFFF7E7FC0A20DE
:101BE000FEF77CFEFFF742F9FFF786F9FFF70AFBE5
:101BF0000A20FEF773FEFFF739F9FFF77DF918B1F8
:101C000098A0FEF7EDFAFEE7FEF740FF010018BFCF
:101C100097A00BD19AA0FEF7E3FA4FF00060FEF711
:101C2000F3FE00281CBF014699A002D0FEF7D8FAA7
:101C300089E09BA0FEF7D4FA00244FF0006600BFB5
:101C400014F0070F04BF44A0FEF7CAFA06EB8400A5
:101C500002227949FFF7D0F969A06968FEF7C0FA56
:101C6000601CC4B2102CEBD33BA0FEF7B9FAFEF710
:101C700093FE010018BF8DA0D8D191A0FEF7B0FA55
:101C8000934B391F0020082413F1010200EB030CD1
:101C9000C1F804C000EB020C41F808CFA4F1010C1C
:101CA000801C1CF0FF04F1D157F8241006EB8400CF
:101CB000FEF730FE601CC4B2102CF5D34FF000606C
:101CC000FEF710FF010025D182A0FEF789FA00245B
:101CD00014F0070F04BF20A0FEF782FA06EB840081
:101CE00002225549FFF788F945A06968FEF778FA9E
:101CF000601CC4B2102CEBD317A0FEF771FA79A0C8
:101D0000FEF76EFA4FF00060FEF77EFE010008BF9E
:101D1000002401D077A089E714F0070F04BF0EA0BC
:101D2000FEF75EFA06EB840002224349FFF764F9EE
:101D300033A06968FEF754FA601CC4B2102CEBD3D0
:101D400005A0FEF74DFAFEE70800002053797374F2
:101D5000656D436C6B3A25640D0A000031343A30EE
:101D6000313A3133000000004665622032342032BF
:101D70003032330043483332563030332053696EAB
:101D8000676C654C696E6520546573742025732DEE
:101D900025730D0A00000000000000204000002014
:101DA00000AA55AA01AA55AA646562756720696EE2
:101DB0007465726661636520696E6974206572720C
:101DC0000D0A0000496E697420537563200D0A00E6
:101DD0005061757365204572720D0A00506175730C
:101DE0006520537563200D0A000000005772697466
:101DF000652052616D204572720D0A00400100207D
:101E000025303878200000003D3D3D3D3D3D3D3DC5
:101E10003D3D3D3D3D3D3D466C61736820546573DD
:101E2000743D3D3D3D3D3D3D3D3D3D3D3D3D3D3DAB
:101E30003D3D3D3D3D0D0A00040000201C200240B8
:101E40004F42523A253038780D0A000072656164BD
:101E50002070726F7465637420656E61626C650DCD
:101E60000A0000007061757365206572720D0A00CA
:101E700065727220756E6C6F636B3A25780D0A007F
:101E8000756E6C6F636B207375630D0A0000000044
:101E90006572722065726173653A25780D0A0000DB
:101EA0006572617365207375630D0A006572722037
:101EB0006275666C6F61643A25780D0A0000000057
:101EC0006275667265736574207375630D0A000030
:101ED000C0CCCCCC70616765207067207375630DD2
:101EE0000A000000657261736520616761696E0DAB
:101EF0000A00000065727220706167652070673AA1
:101F000025780D0A000000007310257B7390357B47
:101F1000370500E08325850F8C41232AB50E7325F4
:101F2000207BF325307B02907310257B7390357BEB
:101F3000370500E08325850F83D50500232AB50EDC
:101F40007325207BF325307B7310257B7390357BC5
:101F5000370500E08325850F83C50500232AB50ECC
:101F60007325207BF325307B7310257B7390357BA5
:101F7000370500E08325850F0325450F88C17325AC
:101F8000207BF325307B02907310257B7390357B8B
:101F9000370500E08325850F0325450F2390A50015
:101FA0007325207BF325307B7310257B7390357B65
:101FB000370500E08325850F0325450F2380A50005
:101FC0007325207BF325307B370500E01305450F93
:101FD0004C4193F6C5FF6385D500104190C219A00E
:101FE000904210C191054CC130313233343536370F
:101FF000383941424344454640305800303132334D
:10200000343536373839616263646566403078004C
:1020100004000008000000000000000200010000B1
:1020200010000000442000080000002040000000D4
:102030002C0100088420000840000020B80800009F
:1020400048010008400000000000000000A24A040F
:102050000000000000000000010203040607080958
:10206000000000000000000002040608000000005C
:102070000102030401020304060708092A020402FC
:0420800002A20000B8
:04000005080000F1FE
:00000001FF
