:020000040800F2
:10000000F0060020A1010008C7090008C309000884
:10001000C5090008530600087D180008000000000C
:10002000000000000000000000000000DD0A0008E1
:100030009D08000800000000DD0900081F150008E9
:10004000BB010008BB010008BB010008BB010008A0
:10005000BB010008BB010008BB010008BB01000890
:10006000BB010008BB010008BB010008BB01000880
:10007000BB010008BB010008BB010008BB01000870
:10008000BB010008BB010008BB010008BB01000860
:10009000BB010008BB010008BB010008BB01000850
:1000A000BB010008BB010008BB010008BB01000840
:1000B000BB010008BB010008BB010008BB01000830
:1000C000BB010008BB010008BB010008BB01000820
:1000D000BB010008BB010008BB010008BB01000810
:1000E000BB010008BB010008BB010008BB01000800
:1000F00000F002F800F045F80AA090E8000C8244F5
:100100008344AAF10107DA4501D100F03AF8AFF2D1
:10011000090EBAE80F0013F0010F18BFFB1A43F0E5
:1001200001031847805E0000A05E0000103A24BF63
:1001300078C878C1FAD8520724BF30C830C144BF4C
:1001400004680C607047000000230024002500268E
:10015000103A28BF78C1FBD8520728BF30C148BF2A
:100160000B607047642900F09780782900F0D080F8
:10017000732900F00382002070471FB51FBD10B522
:1001800010BD00F02DFA1146FFF7F7FF01F014FC47
:1001900000F04BFA03B4FFF7F2FF03BC00F052FA91
:1001A0000948804709480047FEE7FEE7FEE7FEE70B
:1001B000FEE7FEE7FEE7FEE7FEE7FEE70448054947
:1001C000054A064B7047000021150008F1000008A1
:1001D000F0000020F0060020F0020020F0020020D5
:1001E0000FB4044910B503AA029800F0CBF910BC73
:1001F0005DF814FB1800002070B50446856900689E
:10020000C10601D5302600E02026C00707D070BD0A
:10021000D4E9012130469047206A401C20626D1EBF
:10022000F6D570BD70B5044685690078C00707D162
:1002300070BDD4E9012120209047206A401C206233
:100240006D1EF6D570BD70B50C460546012A05D069
:100250002878800600D5EA69002302E0012305E042
:100260005B1C934202D2E05C0028F9D1A869E61831
:10027000C01AA861286A184428622846FFF7BCFF04
:1002800004E0D5E9012114F8010B9047B442F8D3FA
:100290002846FFF7C7FF70BD2DE9F0410646002450
:1002A00010687529314616A510D0AFF300800028DC
:1002B00002DA404213A507E031688A0701D512A58A
:1002C00002E0490704D511A5012401E0AFF3008045
:1002D00000210A2206F1240709E0B0FBF2FCB0FB82
:1002E000F2F302FB1C00303078541846491C0028F9
:1002F000F3D123462A463046BDE8F04100F0D3B89A
:10030000000000002D0000002B0000002000000075
:1003100070B504460D4621461068AFF30080218871
:10032000090502D50F4A7A4402E00E4A7A440E3299
:10033000002104F1240305E000F00F060009965D9A
:100340005E54491C0028F7D120780023000704D50B
:10035000702D02D009B1022311322046BDE8704051
:1003600000F0A1B83E5C00002DE9F05F894604462C
:100370004FF0000ADFF824B1FB44C0F820A020466B
:10038000E168884700287DD0252806D0D4E90121DE
:100390009047206A401C2062F1E700255F46204616
:1003A000E16888472028064607DB312E05D2B819B8
:1003B00010F8200C08B10543F1E7A80701D525F096
:1003C0000405C4F81CA00027C4F818A02A2E09D0E0
:1003D000304601F054FA38B304EB8708303EC8F8D1
:1003E000186019E059F8041B204604EB870291615C
:1003F000E1688847012F064618D1E069002820DA15
:1004000025F020051DE0D8F8180000EB800006EB71
:1004100040003038C8F818002046E1688847064692
:1004200001F02DFA0028EED1012F0AD02E2E08D18E
:100430002046E16888477F1C0646022F45F02005CC
:10044000C4DBA069002803DA404245F00105A06141
:10045000E80701D025F01005A6B1A6F14100192842
:1004600002D8203645F400654A46314620462560CC
:100470004D46FFF777FE60B1012807D0ED1D25F04E
:10048000070000E007E000F1080978E705F104093A
:1004900075E730467AE7206ABDE8F09F145C0000FB
:1004A0007047704770472DE9F0470D4699469246D0
:1004B000044600F124080168880604D5E06921F0AB
:1004C0001001216000E00120A84201DD471B00E08F
:1004D0000027A1697A1902EB0900081AA0612078A7
:1004E000C00602D42046FFF787FE002608E0D4E9C4
:1004F00001211AF806009047206A401C761C2062F1
:100500004E45F4DB2078C0060AD52046FFF774FE7E
:1005100006E0D4E9012130209047206A401C206287
:10052000381EA7F10107F4DC07E0D4E9012118F82F
:1005300005009047206A401C2062281EA5F1010595
:10054000F3DC2046FFF76EFE2078000602D502207D
:10055000BDE8F0870120FBE710B5436913B1AFF3A5
:10056000008001E0FFF76FFE012010BD127800F15E
:1005700024010A7000224A700122EDE711684FF051
:10058000FF32E9E7074B70B50D467B4400F011F8E8
:100590000446284600F020F810B14FF0FF3070BD3F
:1005A000204670BD0714000001694A1C02610878EA
:1005B000704700B58FB0CDE90131002105910549A3
:1005C0007944CDE9031011466846FFF7CDFE0FB020
:1005D00000BD0000E5FFFFFF007B00F080007047DA
:1005E000754600F02BF8AE4605006946534620F0EC
:1005F0000700854618B020B5FFF7E0FDBDE82040B4
:100600004FF000064FF000074FF000084FF0000BCE
:1006100021F00701AC46ACE8C009ACE8C009ACE881
:10062000C009ACE8C0098D46704710B50446AFF369
:1006300000802046BDE81040FFF7ACBD0048704781
:100640008C00002001491820ABBEFEE72600020006
:100650007047FEE72DE9F0431E4CDFF874C00D46ED
:10066000A1788CF80010E6788CF801602178677822
:1006700094F802800CF10202082300BF10F0800FF2
:1006800019BF82F800805670117057704006000E36
:10069000921C5B1EF2D10921604600F0CFF822794E
:1006A000E178A07800F070F828600B486279016862
:1006B00021F470410160016841F400410160074983
:1006C0000020088008889042FCD30020BDE8F08319
:1006D0003800002030000020000C0140242C014094
:1006E0002DE9F0430246254C2348A378037094F883
:1006F00003C080F801C042F00103821C26786778AD
:1007000094F80280082500BF13F0800F19BF82F80B
:10071000008082F801C0167057705B061B0E921C99
:100720006D1EF1D194F800C06578A678E77800F1E5
:100730001202202311F0004F19BF1670577082F873
:1007400000C055704900921C5B1EF3D1292100F0B6
:1007500075F80B486179026822F470420260026801
:1007600042F40042026007480022028002888A4266
:10077000FCD30020BDE8F0833800002030000020CA
:10078000000C0140242C01402DE9F0030346002019
:10079000202472B60827DFF89080244DDFF890906F
:1007A00024490646D5F800C02CF4704CC5F800C0AA
:1007B000D5F800C04CF4405CC5F800C0C8F8007023
:1007C00040000E80B1F800C09C45FBD3D5F800C0B6
:1007D0002CF4704CC5F800C0D5F800C04CF4004CA7
:1007E000C5F800C0D9F800C01CF0080F14BF401CA9
:1007F0000E8013D0A4F1010C1FFA8CF4002CD1D17F
:1008000062B60D490F60296821F47041296029689A
:1008100041F440512960BDE8F0037047B1F800C0D1
:100820009445FBD3E6E70000140C0140000C0140A6
:10083000080C0140242C0140100C0140F0B472B6A9
:10084000134A136823F470431360136843F440534E
:100850001360104E002408250F4A371F356014809E
:1008600090F80030B2F800C09C45FBD33D60148086
:1008700010F8013FB2F800C09C45FBD3401C491E54
:100880000904090CEAD162B60020F0BC70470000F0
:10089000000C0140140C0140242C01407047000062
:1008A00010B56FF0040000F02FFE094809490068F8
:1008B000B0FBF1F0C1B2084801EB41020170C2EB9C
:1008C000C1114FF6FF7202EAC101418010BD000064
:1008D0000000002000127A00140000200C49498812
:1008E00041434FF0E020416100238361016941F001
:1008F00001010161016911F0010F02D011F4803F83
:10090000F8D0016921F001010161836170470000A5
:10091000140000202DE9F001CB78002203F00F0C29
:1009200013F0100F1CBF8B7843EA0C0C0B784FF0C0
:100930000F0613F0FF0F4FF0010518BF046819D020
:100940000F8805FA02F31F409F420FD1970006FA65
:1009500007F824EA08040CFA07F73C43CF78282F5D
:1009600008BF436102D0482F08BF0361521C082A08
:10097000E6D304600A88FF2A87BF44680022BDE8E6
:10098000F001704702F108030F8805FA03F31F40D6
:100990009F420FD1970006FA07F824EA08040CFAE0
:1009A00007F73C43CF78282F08BF4361CF78482F03
:1009B00008BF0361521C082AE4D34460BDE8F0017B
:1009C0007047FEE7FEE77047034940F0FD7040F0D6
:1009D00080600860704700000CED00E07047000088
:1009E000044A0029116914BF084321EA000010617C
:1009F0007047000000100240044A0029916914BFAA
:100A0000084321EA00009061704700000010024096
:100A1000044A0029D16814BF084321EA0000D060CD
:100A20007047000000100240264910B44A6812F0D6
:100A30000C03254A18BF042B01D0082B01D00260FB
:100A40001AE04A684B6802F470124FF0020C13F47B
:100A5000803F0CEB924207D04B6813F4003F08D064
:100A60001A4B5A43026007E0194B1B6813F0100F32
:100A7000F6D0154B5A4302604A680F2303EA12125C
:100A8000144B9A5CD0F800C02CFA02FCC0F804C0E9
:100A90004A68072404EA12229A5C2CFA02F2826065
:100AA0004A6804EAD2229A5C2CFA02F2C2604968CF
:100AB000032303EA9131084B595CB2FBF1F1016168
:100AC00010BC70470010024000127A0000093D007F
:100AD00000380240200000201C000020704738B57C
:100AE00000200446009069462C20FFF7B3FD002843
:100AF00018BF38BD009810F4805F0BD00120FFF7BD
:100B0000EDFE601CC4B2C82CEDD3C82C0CBFEF2086
:100B1000002038BD0098C0F3022000900028F4D0D7
:100B20004FF0FF312C20FFF7DBFD0098C0B238BD3D
:100B3000F8B50D460646002469462220FFF78AFDD7
:100B4000002818BFF8BD0098B0F1FF3F02D0304038
:100B5000A84206D00320FFF7C1FE601CC4B2C82C17
:100B6000EAD304A00099FFF73BFBC82C0CBFEF2091
:100B70000020F8BD444D53544154533A2530387841
:100B8000200D0A0038B500244FF44075601CC4B233
:100B900069462220FFF75EFD0420FFF79FFE08A0B4
:100BA0000099FFF71DFB009835EA000002D0C82C21
:100BB000ECD303E0C82C3CBF002038BD012038BD79
:100BC000657869743A253038780A000030B583B00A
:100BD0000020009001210820FFF70EFF0824ADF847
:100BE000004010208DF8030003208DF802006946B4
:100BF0001348FFF78FFE134D2C600520FFF76EFEA4
:100C0000281D04601420FFF769FE2C600E4CFC20A8
:100C10002146FFF765FD2146FA20FFF761FD01A996
:100C2000F820FFF717FD09A00199FFF7D9FA0198FD
:100C3000A0F58231C91E14BF0120002003B030BDD1
:100C4000000C0140100C01400004A55A43415052D1
:100C50005F535441303A253038780D0A00000000C7
:100C6000F8B51F4C20202146FFF73AFD002818BF99
:100C7000F8BD21462020FFF733FD002818BFF8BD3E
:100C800001212020FFF72CFD002818BFF8BD1549D1
:100C90002020FFF725FD002818BFF8BD4FF440665F
:100CA0003546002469462220FFF7D4FC002818BFEF
:100CB000F8BD0098B0F1FF3F02D03040A84206D006
:100CC0000320FFF70BFE601CC4B2C82CEAD3064811
:100CD0000099FFF785FAC82C0CBFEF200020F8BD63
:100CE0000100008001000040740B000870B582B064
:100CF0000020009001210820FFF77EFE0825ADF8B6
:100D0000005010208DF8030003208DF80200694682
:100D10003048FFF7FFFD304C25600520FFF7DEFD72
:100D2000201D05601420FFF7D9FD25602B4CFC2009
:100D30002146FFF7D5FC2146FA20FFF7D1FC01A997
:100D4000F820FFF787FC26480199FFF749FA019838
:100D5000A0F58231C91E1EBF012002B070BD214C1A
:100D600020202146FFF7BCFC00281CBF02B070BD4C
:100D700021462020FFF7B4FC00281CBF02B070BD44
:100D80004FF440763546002469462220FFF762FC86
:100D900000281CBF02B070BD0098B0F1FF3F02D028
:100DA0003040A84206D00320FFF798FD601CC4B273
:100DB000C82CE9D30C480099FFF712FAC82C02BFDF
:100DC000EF2002B070BD012102B02020BDE87040CC
:100DD000FFF786BC000C0140100C01400004A55A2E
:100DE0004C0C000801000080740B000810B50C4684
:100DF00040F4043141F400112E20FFF771FC00286B
:100E000018BF10BDFFF76BFE002818BF10BD2146AC
:100E1000BDE810400820FFF71DBC00002DE9F04799
:100E2000174689468046402641460A20FFF758FC6F
:100E3000002818BFBDE8F087022F08BF124C03D06E
:100E4000012F0CBF114C124C5FF0000506EB450062
:100E500054F8041BC0B2FFF743FC681CC5B2082D50
:100E6000F4D34FF480212E20FFF73AFC002818BF5E
:100E7000BDE8F087FFF733FE0028D5D14946BDE82D
:100E8000F0470820FFF7E6BBA85C0008C85C000834
:100E9000E85C000802220249024800F02FB8000076
:100EA0008000EFBE48E000E010B504460820FFF7E0
:100EB00017FC002818BF10BD44F40C112E20FFF7BA
:100EC0000FFC002818BF10BDBDE81040FFF707BE9B
:100ED00010B504460820FFF703FC002818BF10BD1A
:100EE00044F4443141F400112E20FFF7F9FB0028AF
:100EF00018BF10BDBDE81040FFF7F1BD70B5054645
:100F000014460820FFF7ECFB002818BF70BD2946E7
:100F10000A20FFF7E5FB002818BF70BD022C08BFB0
:100F20000F4C03D0012C0CBF0E4C0F4C002540265B
:100F300006EB450054F8041BC0B2FFF7D1FB681C58
:100F4000C5B2082DF4D34FF480212E20FFF7C8FB43
:100F5000002818BF70BDBDE87040FFF7C0BD00009D
:100F6000085D0008285D0008485D00082DE9F04F85
:100F70000546088883B0401EADF800008946144637
:100F800008201168FFF7ACFB00281CBF03B0BDE8C8
:100F9000F08F4FF00108A9F80080BDF8000040274D
:100FA00000287DD045F001010A20FFF799FB0028B9
:100FB00007BF544E002503B0BDE8F08F56F8041B60
:100FC00007EB4500C0B2FFF78BFB681CC5B2082DCC
:100FD000F4D34FF480212E20FFF782FB00281CBFA2
:100FE00003B0BDE8F08FFFF77AFD00281CBF03B007
:100FF000BDE8F08F01213020FFF772FB00281CBFF5
:1010000003B0BDE8F08F0820CDF804D06168BDF8CA
:1010100000A00834FFF764FB0126ADF800804FF014
:10102000000BBAF1010F39D9374D384FDFF8E080A6
:10103000384B54F8041B2878187068785870981C3E
:101040005FF0200211F0004F14BF95F802C095F830
:1010500000C080F800C014BF95F803C095F801C027
:1010600080F801C04900801C521EEBD12121184696
:10107000FFF7E4FB6879396821F470413960396819
:1010800041F400413960A8F800B000BFB8F8001082
:101090008142FBD3701C86B25645C9D3019800E04B
:1010A0000CE00680BDF800000021401CA9F80000FB
:1010B0003020FFF715FB03B0BDE8F08F29460A206A
:1010C000FFF70EFB002807BF134D002403B0BDE857
:1010D000F08F00BF07EB440055F8041BC0B2FFF7C8
:1010E000FFFA601CC4B2082CF4D34FF480212E20E8
:1010F000FFF7F6FA002808BFFFF7F1FC03B0BDE8E0
:10110000F08F0000685D000830000020000C0140F6
:10111000242C014038000020085D000800B50020A4
:1011200083B003460090024601900349034800F053
:10113000ADFB03B000BD0000380000204C5F00088C
:1011400010B50D4A82B002F5D87404F124014FF0B5
:101150000050FFF70BFF00281CBF02B010BD00209D
:101160000090034602460190044904F1140000F087
:101170008DFB02B010BD0000885D00080400002057
:101180002DE9F04784B04FF0000814000D460646E4
:10119000CDF808802DD0194FDFF864A0DFF86490F7
:1011A000B4F5807F8CBF4FF4807020462A460290B1
:1011B00002A93846FFF7DAFE00281CBF04B0BDE8DC
:1011C000F0874FF48063CDE900783246514609F14B
:1011D000140000F05BFB00281CBF04B0BDE8F087E2
:1011E000029806EB800605EB8005404214EB800474
:1011F000D6D104B00020BDE8F08700000002002036
:10120000A2000020385F000800B5002083B003462C
:101210000090024601900349034800F037FB03B0F9
:1012200000BD0000280000204C5F0008F8B5504CBD
:10123000504E022221463046FFF760FE002818BFBC
:10124000F8BD02224C4D30462946FFF757FE0028D4
:1012500018BFF8BD0222494E21463046FFF74EFE28
:10126000002818BFF8BD022229463046FFF746FE87
:10127000002818BFF8BD02222146414C2046FFF746
:101280003DFE002818BFF8BD022229462046FFF780
:1012900035FE002818BFF8BD02223A4D694628469F
:1012A000FFF7BCFD002818BFF8BD0098022240F0EF
:1012B00020012846FFF722FE002818BFF8BD0222B1
:1012C00069462846FFF7AAFD002818BFF8BD009818
:1012D000022240F040012846FFF710FE00280CBF14
:1012E000294EF8BD022269463046FFF797FD0400FB
:1012F00005D0014625A0FEF773FF2046F8BD0098F3
:1013000010F0010FEED10222694634463046FFF755
:1013100085FD002818BFF8BD0098022240F020018A
:101320002046FFF7EBFD002818BFF8BD02226946F2
:101330002846FFF773FD002818BFF8BD0098022269
:1013400020F020012846FFF7D9FD002818BFF8BD7E
:10135000022269462846FFF761FD002818BFF8BD44
:101360000098022220F400712846FFF7C7FDF8BD5F
:101370002301674504200240AB89EFCD24200240C1
:1013800008200240102002400C200240666C61736D
:101390006820627573792025780A00002DE9F04FE6
:1013A00083B0002082460090FFF740FF4C4DDFF8ED
:1013B00034814D4CDFF834914D4EDFF838B12F1D9C
:1013C000022221462846FFF799FD80B902224946AC
:1013D0002846FFF793FD50B9022221464046FFF709
:1013E0008DFD20B9022249464046FFF787FD0222C3
:1013F00021463846FFF782FD00281CBF03B0BDE838
:10140000F08F022249463846FFF778FD00281CBFBE
:1014100003B0BDE8F08F022269463046FFF7FEFCBC
:1014200000281CBF03B0BDE8F08F0098022240F0F6
:1014300010013046FFF762FD00281CBF03B0BDE875
:10144000F08F012245F6A5215846FFF757FDFFF71B
:1014500046FB0146019028A0FEF7C2FE019868B144
:10146000BAF1050F24BF03B0BDE8F08F0AF1010007
:1014700000F0FF0A0120FFF731FAA1E7214C022218
:1014800069462046FFF7CAFC009810F0010FF6D11C
:10149000022269462046FFF7C1FC0098022240F074
:1014A00020012046FFF72AFD022269463046FFF759
:1014B000B5FC0098022220F010013046FFF71EFD17
:1014C000022269463046FFF7A9FC0098022220F468
:1014D00000713046FFF712FD03B00020BDE8F08F29
:1014E000042002402420024023016745AB89EFCD50
:1014F0001020024000F8FF1F2D2D733A25780D0AA9
:10150000000000000C2002404FF0E0210428086990
:101510000CBF40F0040020F00400086170477047E1
:10152000374882B0016841F0010101604168354AE5
:1015300011404160016821F4102121F080710160A7
:10154000016821F480210160416821F4FE014160BD
:101550004FF41F018160002201920092016841F462
:1015600080310160016801F4003100910199491C4A
:101570000191009919B90199B1F5A06FF2D10168F3
:1015800011F4003F08BF009233D0012100911E49A1
:101590000A6842F010020A600A6822F003020A6038
:1015A0000A6842F002020A60416841604168416095
:1015B000416841F480614160416821F47C114160DF
:1015C000416841F4E8114160016841F080710160B7
:1015D000016811F0007FFBD0416821F003014160F8
:1015E000416841F002014160416801F00C010829A5
:1015F000FAD106494FF00060086002B07047000061
:10160000001002400000FFF80020024008ED00E05A
:101610000029018814BF41F0010121F0010101807E
:10162000704710B5A0F18041B1F5963117D0B0F1F7
:10163000804F29D0A0F18041B1F580611AD0A0F18E
:101640008041B1F5006118BF10BD01210420FFF7F2
:10165000C7F90021BDE810400420FFF7C1B90121FE
:10166000C802FFF7D5F9BDE8104000214FF4006033
:10167000FFF7CEB901210220FFF7B2F90021BDE842
:1016800010400220FFF7ACB901210846FFF7A8F986
:101690000021BDE810400120FFF7A2B90288144BD9
:1016A000984218BFB0F1804F09D0A0F1804CBCF532
:1016B000806C1CBFA0F1804CBCF5006C05D1B1F86A
:1016C00002C022F070024CEA0202B1F806C022F415
:1016D00040724CEA020202808A8882850A8802856A
:1016E000984204BF097A0186012181827047000077
:1016F000002C014030B583B000240F4D00940194BC
:1017000028460294FFF78DFF0121C802FFF774F904
:101710004FF6FF70ADF80400ADF80040ADF806409C
:10172000ADF8024069462846FFF7B8FF0121284678
:10173000FFF76EFF03B030BD002C01400029818906
:1017400014BF41F4005121F40051818170470246D9
:10175000002012880A4218BF0120704730B50446A5
:10176000008A85B00D464CF6FF710840E9880843B1
:101770002082A0894EF6F3110840A9882A891143D6
:101780006A8910430843A081A08A4FF6FF410840B0
:10179000A9890843A0826846FFF746F9A4F1804072
:1017A000B0F59C300CBF03980298A18911F4004F4A
:1017B00000EBC00101EB0010296814BF490089004B
:1017C000B0FBF1F0114A6FF0180CA2FB003149098F
:1017D00009010B0903FB0CF300EB8300A38913F44D
:1017E000004F4FF0320314BF03EBC00003EB0010B7
:1017F000A2FB00204FEA501014BF00F0070000F0D9
:101800000F000843208105B030BD00001F85EB515B
:1018100010B5044686B0012144F20400FFF7ECF84D
:101820004FF40070ADF8100003208DF8120018205E
:101830008DF8130004A90D48FFF76CF80020ADF8EF
:1018400004000094ADF80600ADF80800ADF80C00F7
:101850000820074CADF80A0069462046FFF77EFFD6
:1018600001212046FFF76AFF06B010BD00080140C5
:1018700000380140C1F3080181807047FEE730382D
:101880000A2801D201207047002070472DE9F84353
:10189000DDE908870E4605460024994611460A20D0
:1018A0000094FFF715FB00281CBF0120BDE8F8835A
:1018B00049460B20FFF70CFB00281CBF0220BDE8A7
:1018C000F88341460C20FFF703FB00281CBF0320D0
:1018D000BDE8F88339460D20FFF7FAFA00281CBF4F
:1018E0000420BDE8F88302206968FFF7F1FA0028B8
:1018F0001CBF0520BDE8F88301202968FFF7E8FA3E
:1019000000281CBF0620BDE8F883314640F2B170C4
:10191000FFF7CAFA00281CBF0720BDE8F88349F288
:1019200003614FF4F660FFF7BFFA00281CBF0820E0
:10193000BDE8F883FFF794F9FFF724F969460A2018
:10194000FFF754FA002818BF142C05D2601CC4B24B
:101950000120FEF7C3FFEFE7009810F0FF0F1CBF58
:10196000EF20BDE8F883C2B2314603A0FEF738FC91
:101970000020BDE8F883000073797363616C6C2804
:1019800025303878292072657475726E282578297B
:101990000D0A000070B5074D044640212846FFF7A8
:1019A000D6FE0028F9D0E1B22846FFF763FF2046B3
:1019B00070BD00000038014082B000244FF4A060E8
:1019C000FFF702F8FEF76CFF4FF4E130FFF720FF5E
:1019D000FFF790FE4E4801684EA0FEF701FC51A2B1
:1019E00053A156A0FEF7FCFB1420FEF777FFFFF78C
:1019F000EDF8002818BF5AA009D000BFFEF7F0FB91
:101A0000022269465D48FFF709FA88B90CE05CA03C
:101A1000FEF7E6FBFFF76AF9002808BF5BA0EDD0F0
:101A20005EA0FEF7DDFBFEE75FA00099FEF7D8FBA6
:101A3000009810F0030F12D05EA0FEF7D1FBFFF765
:101A4000ADFC0A20FEF74AFFFFF70AF9FFF74EF94F
:101A5000FFF720FA0A20FEF741FFFFF701F9FFF731
:101A600045F918B14DA0FEF7BBFBFEE757A0FEF706
:101A7000B7FBFFF765FB00281CBF59A0FEF7B0FBC2
:101A80005DA0FEF7ADFB4FF0005500BF14F0030F53
:101A900004BF23A0FEF7A4FB05EB840002226946E5
:101AA000FFF7BCF959A00099FEF79AFB641C802C43
:101AB000ECD31BA0FEF794FBFFF730FB18B155A049
:101AC000FEF78EFBFEE757A0FEF78AFB4FF480443B
:101AD000214659A0FEF784FB22465A496003FFF7CE
:101AE0004FFB002818BF58A003D000BFFEF778FBBB
:101AF0000DE059A0FEF774FBFFF786FB002818BF26
:101B00005BA0F3D15FA0FEF76BFBFFF7C3F9FEE725
:101B10000000002053797374656D436C6B3A256443
:101B20000D0A000031383A32323A333500000000F5
:101B30004D61722020372032303233004348333237
:101B4000563030332053696E676C654C696E652082
:101B5000546573742025732D25730D0A0000000051
:101B6000446562756720696E74657266616365209D
:101B7000696E6974206572720D0A00001C200240B3
:101B8000496E697420537563200D0A0050617573A6
:101B90006520537563200D0A0000000050617573C5
:101BA00065204572720D0A004F42523A253038784E
:101BB0000D0A0000526561642070726F7465637471
:101BC00020656E61626C650D0A00000057726974D1
:101BD0006520436F646520546F2052616D0D0A00CB
:101BE000577269746520436F646520546F20526199
:101BF0006D204572720D0A00436865636B20526167
:101C00006D20446174613A0D0A0000002530387877
:101C1000202000004572617365204661696C0D0AE1
:101C200000000000457261736520436869702053AD
:101C300075630D0A000000004C656E6774683A25F4
:101C4000640D0A00A81C000850726F6772616D2055
:101C50004661696C0D0A000050726F6772616D20F9
:101C60005375636320416E64204C6F636B0D0A00F3
:101C7000466C617368204C6F636B204661696C0D24
:101C80000A000000466C617368204C6F636B205340
:101C900075636320416E64205265736574204368E8
:101CA0006970210D0A0000006F00D0640000000080
:101CB0001E010000EE060000000000000000000011
:101CC0000000000000000000000000000000000014
:101CD0000000000000000000980500000000000067
:101CE0001C0E0000000000003A060000200E00005C
:101CF000220E0000240E0000260E0000280E000018
:101D00002A0E00002C0E00002E0E0000300E0000E7
:101D1000320E0000340E0000360E0000380E0000B7
:101D20003A0E00003C0E00003E0E0000400E000087
:101D3000420E0000440E0000460E0000480E000057
:101D40004A0E000000000000634E050263C3050454
:101D50002E86AA857D5515C285466378B6006356E2
:101D6000C00006068606E36CB6FE014563E4C500C6
:101D7000918D558D85820582F5FA82808682C93FD4
:101D80002E8582823305A04063D70500B305B0409D
:101D9000C1B7B305B0408682653F3305A04082825B
:101DA000868263C70500634905005D372E85828200
:101DB000B305B040E35B05FE3305A040513F33055A
:101DC000B040828200007300203081476393A700F7
:101DD000828001008507DDBFAA87130785020145C0
:101DE00094436383B60005459107E39BE7FE828039
:101DF000411126C203A7C18306C622C48547631BBF
:101E0000F70883A5018837150000130505311384F1
:101E10000188EF0050444C4037150000130545324F
:101E2000EF0070430C443715000013058533EF00B5
:101E300090424C44371500001305C534EF00B04103
:101E40000C483715000013050536EF00D0404C480C
:101E50003715000013054537EF00F03F0C4C3715E0
:101E6000000013058538EF00103F4C4C371500007B
:101E70001305C539EF00303E0C503715000013052F
:101E8000053BEF00503D4C50371500001305453C15
:101E9000EF00703C83A741848546638BD70203A77C
:101EA000C18385476316F70C83A78184850723A424
:101EB000F18483C7D18205476392E70C83A7818AA7
:101EC000850723A4F18AB2402244924441018280D2
:101ED00083A58185371500001305853D3EC0138419
:101EE0008185EF0050374C40371500001305053F42
:101EF000EF0070360C443715000013058540EF00E5
:101F000090354C443715000013050542EF00B034FE
:101F10000C483715000013058543EF00D0334C48BB
:101F20003715000013050545EF00F0320C4C37154E
:101F3000000013058546EF0010324C4C37150000A9
:101F400013050548EF0030310C503715000013051C
:101F50008549EF0050304C50371500001305054BF4
:101F6000EF00702F03A741848247E30FF7F205BF0C
:101F700083A7418C850723A2F18C25BF094763986D
:101F8000E70083A70183850723A8F1822DBF0D47B2
:101F9000E39BE7F283A7C184850723A6F18425B7D5
:101FA000211122C826C606CA2AC42EC232C0A38660
:101FB00001822386018223880184C5290246328555
:101FC0002935611126C2970400209384A4D023A050
:101FD000140023A2540023A4640023A6740088C81C
:101FE000CCC890CCD4CC98D0DCD092442101B7504E
:101FF000555593805055B752555593825255375386
:10200000555513035355B75355559383535537556A
:10201000555513055555B75555559385555537564F
:10202000555513065655B756555593865655375739
:10203000555513075755B757555593875755511150
:1020400022C226C437E400E0C16423209420124455
:10205000A24431010100010001000100611126C20A
:102060009384018823A0140023A2540023A46400B5
:1020700023A6740088C8CCC890CCD4CC98D0DCD02F
:1020800092442101611126C297040020938484C4E4
:1020900083A0040083A2440003A3840083A3C4009C
:1020A0008848CC48904CD44C9850DC509244210144
:1020B000B75555559385555513850188313B0246D3
:1020C0009246224723AEA182854783C5C182639D84
:1020D000F50083C501856399F5004244D240B244BE
:1020E000B6853A85610129B30100C5B77165130151
:1020F000C1FD1305052006D022CE26CCEF0070507E
:102100007926792679261385018BEF00503483A533
:10211000018B371500001305C522EF00D01313847F
:10212000018B4C403715000013050524EF00B01259
:102130000C443715000013054525EF00D0114C4421
:102140003715000013058526EF00F0103715000045
:102150001305C527EF00501223A2018C23A401848C
:1021600023A4018A23A8018223A60184014732C047
:1021700036C23EC48146930740063A8681453E8575
:1021800036CA3AC83EC6293D83C5D1820946B24700
:102190004247D2466397C500130640066368D600DF
:1021A000850685071306803EE399C7FC0507BD47F2
:1021B000E312F7FC3715000013058528EF00D00B5C
:1021C00083A5418C3715000013054529EF00B008A1
:1021D00083A58184371500001305452AEF00B00759
:1021E0008247371500001305452B83A5818AEF0030
:1021F00090069247371500001305452C83A50183EF
:10220000EF007005A247371500001305452D83A583
:10221000C184EF00500483A7818491CF371500005B
:102220001305452EEF005005371500001305452F07
:10223000EF00900415B7371500001305C52EDDB764
:10224000EF00F04623AAA184EF00D04623A4A18288
:10225000EF00B04623AAA182B7F700E023A0070051
:10226000D843799BD8C305472386E182B7E700E0CE
:1022700083A607304567639FE6040D47A386E18286
:10228000B710121293802021B712121293822221CA
:102290003713121213032321B7131212938323212E
:1022A0003715121213052521B71512129385252112
:1022B0003716121213062621B716121293862621FC
:1022C0003717121213072721B717121293872721E6
:1022D0007300203083C601850547E391E6FA09477C
:1022E00071BFEF00D03C23A6A18AEF00B03C23AC25
:1022F000A182EF00903C23A0A18405472388E184BC
:10230000B710161693806061B71216169382626139
:102310003713161613036361B7131616938363619D
:102320003715161613056561B71516169385656181
:102330003716161613066661B7161616938666616B
:102340003717161613076761B71716169387676155
:102350000100010001000100611126C29384818502
:1023600023A0140023A2540023A4640023A6740015
:1023700088C8CCC890CCD4CC98D0DCD09244210171
:10238000B71516169385656113858185B13423A22F
:10239000A184730020303715000013058521E92D35
:1023A0000100FDBFB71702409843B706FFFC61115B
:1023B0001367170098C3D84337060200758FD8C338
:1023C0009843B706F7FEFD16758F98C39843B70676
:1023D000FCFFFD16758F98C3D843C176FD16758F27
:1023E000D8C337079F0098C702C002C29843C1668E
:1023F000558F98C3B716024005679C42F18F3EC2C5
:10240000824785073EC0924781E78247E397E7FE10
:10241000B71702409C431397E700635807068547A8
:102420003EC2124785476310F706B727024098431C
:10243000C176FD16719B98C398431367270098C314
:10244000B7170240D843D8C3D843758FD8C3D843F1
:10245000C166558FD8C39843B7060001558F98C3FE
:10246000984393166700E3DD06FED843B716024093
:10247000719BD8C3D84313672700D8C32147DC42D8
:10248000B18BE39EE7FE2101828002C259BF8280A8
:102490008280B7E700E023860740130700FC23880B
:1024A000E740456723A0E7108280B7F700E023A04C
:1024B000070023A4070088CB1D4798C382804111E1
:1024C00006C62EC00DCD1841AA8705C358417D55BB
:1024D00011CB8546631BD70098472300070023A232
:1024E00007000545B240410182809847824614A307
:1024F0009847050798C7D8437D17D8C3DDB7054669
:102500008A85EF00B015F1BF011122CC2EC206CE94
:1025100026CA2A8481479305000263450602924534
:10252000BE95838505008DE563D8C70263D4E702B5
:10253000198E1305000293F526002AC089C501E70C
:10254000930500032EC0858A814495EAB2840DA0CC
:102550008507F1B71D8EF1BF0146E1BF8245228597
:102560003AC832C63EC4A13FA24732464247FD1494
:10257000E34690FEB284635306008144058E63C730
:10258000E702A68792463387974036978305070070
:1025900095EDB28463449004635306000146F24013
:1025A0006244D2443305F600056182801D8FBA87EC
:1025B00093050003228532C83EC63AC40937B247A4
:1025C00022474246FD17EDF7BA9465BF228532C611
:1025D0003EC4F535A247324685076DB78245228550
:1025E00032C43EC2E93DFD142246924765B73971B7
:1025F00006DE22DC26DA3EC232833A8689ED924636
:102600009307000301476C08FC86FD3DF2506254BD
:10261000D25421618280AA843684AE8791CA294728
:1026200001446317E30063D50500B307B0400544D8
:102630008646A309010213073103938666FC36C45C
:102640009A853E8532CA3AC81AC63EC0EFF00FF3EB
:10265000A546824732434247524663D4A600A2466B
:102660003695130505039306F7FFA30FA7FE9A857A
:102670003E8532CC3ACA1AC83EC636C0EFF04FED9E
:10268000B24742435247624663F9670401CC29CA04
:102690009247898BB1C79305D002268532C4053590
:1026A00022467D169247918B95C3064793071006E5
:1026B00032C4930500032685631EF702093593058E
:1026C00080072685ED3B2246090479161647924677
:1026D00082452685153D229515BFAA8702478DB7ED
:1026E00082469307D0020144A38FF6FE9307E7FFCB
:1026F0003EC04DBFE93393058005E1B701458280B7
:1027000001458280130181FD22D026CE06D22AC443
:10271000AE82328402C681448385020089EDA247DD
:1027200081C781453E85613B925002542685F24423
:10273000130181028280930750026388F5002245CD
:1027400016C88504AD3BC24239A88387120013879F
:102750001200639CB7002245930550023AC88533A6
:1027600042478504BA82850245BFD5DB9306B00295
:102770006389D70463C8F600930630026386D704E2
:10278000814705A09306D002638AD7009306000311
:10279000E398D7FE13872200894721A013872200E0
:1027A0008547830607001306B0026383C6046341AE
:1027B000D60213063002638BC602BA820145A546D3
:1027C00081A0138722006DBF138722009147D1BFDC
:1027D0001306D0026389C60013060003E39FC6FCFC
:1027E00093E7270031A005078547C1BF93E747005E
:1027F0000507E1B713162500329506053A958502BF
:1028000003860200130706FD9375F70FE3F4B6FE87
:102810001307E0029946631EE60085028146A5453E
:1028200003860200130606FD1377F60F63F5E50233
:1028300036C6038702001306A006630DC70A63436A
:10284000E6021306C0046307C70A13068006630C7A
:10285000C70881452DA813972600BA968606B2961A
:1028600085027DBF130640076306C7081306A0074D
:102870006302C7081306C0068145631AC7000386B2
:1028800012008D456314E60085029145850203869A
:102890000200930300061307100663C4C300130766
:1028A00010049303700663C4C30693035006635376
:1028B00076189303700463C1C30493055004635BEB
:1028C000B61613073004E310E6EA184093034400F9
:1028D00016CA230CE1001EC8A30C01000147BE86E6
:1028E0002A862C0849A8038612008145E311E6FADE
:1028F000890271BF8502B1BF93063006E307D6FC9B
:1029000063CEC606930680056303D602A9BD93066F
:1029100030076304D60463CBC6029306F006630255
:10292000D60E9306000793E74700E31ED6E29146D2
:10293000639FD50A930384000C40504016CA3AC2E4
:102940003EC01EC8AA870147C146B9A093065007DA
:102950006308D6069306800745BF1840B7160000E7
:10296000930344009385864C11C3BA85324716CA37
:102970001EC8BE862A862245413E0DA0914663941C
:10298000D502930384000C40504016CA3AC23EC0A0
:102990001EC8AA870547A94622458D33C243AA947B
:1029A0001E84D242C9B3B2460C4016C836C23AC0E1
:1029B00011042A878546294622451539AA9461B310
:1029C0009146639DD500930384000C40504016CA85
:1029D0003AC23EC01EC8AA87014775BFB2460C4026
:1029E00016C836C23AC011042A878146E9B7B246F2
:1029F00016C80C40414636C23AC011042A878146A7
:102A000065BF9146639ED500930384000C405040FF
:102A100016CA3AC23EC01EC8AA870147A146ADBF2A
:102A2000B2460C4016C836C23AC011042A87814605
:102A3000214659B70C401306840040403AC22A8709
:102A4000224532C83EC02286B687A94616CA4D39ED
:102A5000AA944244B9B71301C1FD2EC832CAAA854F
:102A60001008014506C636CC3ACE3ED032C05939A0
:102A7000B240130141028280411122C426C206C61F
:102A80001C21AA840144DC8183073100050491EFF5
:102A9000A9479305310005460145DC81C126228501
:102AA000B2402244924441018280054693053100A0
:102AB00001456D26B38784009C23DC81F1B701A01A
:102AC00001A001A001A001A001A001A001A001A0FE
:102AD00001A001A001A001A001A001A001A001A0EE
:102AE00001A001A001A001A001A001A001A001A0DE
:102AF00001A001A0970100209381C19D138181FD58
:102B0000170500001305856797F5FF1F9385051AC4
:102B100017F6FF1F1306061C63FAC5008322050083
:102B200023A0550011059105E3EAC5FE17F5FF1F27
:102B30001305451A9385818C6377B5002320050022
:102B40001105E36DB5FE93020008739002308D42CB
:102B50007390428097F2FFFF9382421593E2320016
:102B600073905230EFF01F8497F2FFFF9382425828
:102B700073901234730020309C45611122C226C02C
:102B800013F7070113F3F70001C7D8413363E300DC
:102B900092211377F60F29C78323050001471304F9
:102BA0008002930480048546B395E600B376B600B0
:102BB0006392D50293122700BD46B396560093C682
:102BC000F6FFB3F37600B3125300B3E372006397DA
:102BD00087064CC90507A146E317D7FC23207500DB
:102BE0001307F00F6378C70483234500A14613043D
:102BF0008002930480040547B312D7003377560050
:102C00006394E202139726000117BD45B395E500D2
:102C100093C5F5FFB3F375003317E300B363770093
:102C200063928702232A550085064147E395E6FC17
:102C3000232275001244824421018280E39C97F88C
:102C40000CC949BFE39297FE23285500F1BF3717FF
:102C500002405C43511122C206C4B18B91462A84C2
:102C60006385D700A146638AD706B7376E0193877D
:102C700007601CC0B7160240DC42918313F7F700CF
:102C8000B707002093874701BA978C23DC4218408E
:102C900093F5F50F93F707083355B70081E73A85A9
:102CA000EFF00F8B48C008C448C4B7170240DC439C
:102CB0008D46AD8313F7F701CD8B63F3F600511703
:102CC000B707002093870700BA978C23EFF04F884F
:102CD00008C8A2401244310182805C43B777DC020D
:102CE000938707C079B799C5371702401C4F5D8D90
:102CF00008CF8280B7170240984F1345F5FF798DB2
:102D000088CF82801629F577FD17F58FF6211301FC
:102D1000C1FD22CE06D026CCD58FDA251EA9562598
:102D2000FD779387379FF58FD6212A842EC0D58FC4
:102D30009625D58FB625D58F5EA55E29C207C1839E
:102D400093F7F7CF5D8F5AA948001137B747014075
:102D50009387078082456315F406C2475A2413956A
:102D600017003E9542070E0541873E958C41635BF7
:102D700007048605EFE0DFFD930540062AC0EFE07B
:102D80003FFD824793144500930540063E85EFE0E2
:102D9000FFFE5E24C207C18763D807020E059305B4
:102DA000400613052503EFE0BFFA1D89C98CC20454
:102DB000C18006A482507244E24413014102828021
:102DC000B24769BF8A057DB7120593054006130512
:102DD0002503EFE0FFF73D89D1BF91C55E25096767
:102DE000D98F5EA582805A25F977FD17F98FD5BF57
:102DF00093F5F51F4EA182800A216D8D3335A00019
:102E00008280130181FD22D02A8411658545130536
:102E1000050206D2C93D930700027C8037150140A8
:102E20008D473EC28A85E147130505403EC4A9335C
:102E300022C637440140B70708006C001305048020
:102E40003ECA02C8231C0100753D13050480854558
:102E5000693792500254130181028280411122C4C9
:102E600026C206C6AE840144635DC402B747014072
:102E7000138707803A859305000432C0B53FB747F2
:102E8000014013870780024675D533878400830588
:102E90000700138507800504C205C181913F0246E2
:102EA000E1B7B240224492443285410182807325C9
:102EB00010348280732520348280732530348280E0
:102EC0005B547261705D207472617020656E747203
:102ED0007920000053797374656D636C6F636B3A8E
:102EE000256420487A0D0A0048434C4B20202020BE
:102EF0002020203A256420487A0D0A0050434C4B8C
:102F0000312020202020203A256420487A0D0A0014
:102F100050434C4B322020202020203A256420486A
:102F20007A0D0A0054657374205374617274200022
:102F30005465737420456E64200000005B706173FB
:102F40007365645D20253064200A00005B6661695A
:102F50006C65645D20253064200A00005B745F624C
:102F60005F735D20253064200A0000005B745F61A0
:102F70005F735D20253064200A0000005B745F6988
:102F80005F735D20253064200A0000004552520D19
:102F900000000000535543430D0000002B2B2B2B4A
:102FA0002B2B2B2B2B2B2B2B2B2B2B2B2B2B2B2B71
:102FB0002B2B2B2B2B2B0D005B4750525D20783198
:102FC00020203D20252378200A0000005B47505236
:102FD0005D20783520203D20252378200A00000040
:102FE0005B4750525D20783620203D2025237820F5
:102FF0000A0000005B4750525D20783720203D20BA
:10300000252378200A0000005B4750525D2078316C
:1030100030203D20252378200A0000005B475052D5
:103020005D20783131203D20252378200A000000E2
:103030005B4750525D20783132203D202523782097
:103040000A0000005B4750525D20783133203D205C
:10305000252378200A0000005B4750525D2078311C
:1030600034203D20252378200A0000005B47505281
:103070005D20783135203D20252378200A0000008E
:103080005B4750525F505245454D5D2078312020BE
:103090003D20252378200A005B4750525F5052455F
:1030A000454D5D20783520203D20252378200A00DD
:1030B0005B4750525F505245454D5D207836202089
:1030C0003D20252378200A005B4750525F5052452F
:1030D000454D5D20783720203D20252378200A00AB
:1030E0005B4750525F505245454D5D20783130204E
:1030F0003D20252378200A005B4750525F505245FF
:10310000454D5D20783131203D20252378200A006F
:103110005B4750525F505245454D5D20783132201B
:103120003D20252378200A005B4750525F505245CE
:10313000454D5D20783133203D20252378200A003D
:103140005B4750525F505245454D5D2078313420E9
:103150003D20252378200A005B4750525F5052459E
:10316000454D5D20783135203D20252378200A000B
:10317000286E756C6C2900000204060804080C1007
:103180000810182010203040204060800102030405
:1031900005060708010203040506070800000000F1
:1031A0006F00D064000000001E010000EE06000069
:1031B000000000000000000000000000000000000F
:1031C00000000000000000000000000000000000FF
:1031D00098050000000000001C0E00000000000028
:1031E0003A060000200E0000220E0000240E00000F
:1031F000260E0000280E00002A0E00002C0E0000F3
:103200002E0E0000300E0000320E0000340E0000C2
:10321000360E0000380E00003A0E00003C0E000092
:103220003E0E0000400E0000420E0000440E000062
:10323000460E0000480E00004A0E0000000000008C
:10324000634E050263C305042E86AA857D5515C20B
:1032500085466378B6006356C00006068606E36CB2
:10326000B6FE014563E4C500918D558D85820582CA
:10327000F5FA82808682C93F2E8582823305A0407E
:1032800063D70500B305B040C1B7B305B04086822F
:10329000653F3305A0408282868263C7050063498B
:1032A00005005D372E858282B305B040E35B05FEE5
:1032B0003305A040513F3305B040828200007300C7
:1032C000203081476393A700828001008507DDBF1E
:1032D000AA8713078502014594436383B600054519
:1032E0009107E39BE7FE8280411126C203A7C183B9
:1032F00006C622C48547631BF70883A501883715D6
:1033000000001305053113840188EF0050444C4040
:103310003715000013054532EF0070430C44371594
:10332000000013058533EF0090424C443715000030
:103330001305C534EF00B0410C48371500001305E4
:103340000536EF00D0404C483715000013054537CF
:10335000EF00F03F0C4C3715000013058538EF00E7
:10336000103F4C4C371500001305C539EF00303EB7
:103370000C50371500001305053BEF00503D4C5035
:10338000371500001305453CEF00703C83A74184CE
:103390008546638BD70203A7C18385476316F70C65
:1033A00083A78184850723A4F18483C7D18205473D
:1033B0006392E70C83A7818A850723A4F18AB24030
:1033C000224492444101828083A581853715000003
:1033D0001305853D3EC013848185EF0050374C4076
:1033E000371500001305053FEF0070360C44371504
:1033F000000013058540EF0090354C443715000060
:1034000013050542EF00B0340C48371500001305D2
:103410008543EF00D0334C483715000013050545B0
:10342000EF00F0320C4C3715000013058546EF0015
:1034300010324C4C3715000013050548EF003031B1
:103440000C503715000013058549EF0050304C50E3
:10345000371500001305054BEF00702F03A74184BB
:103460008247E30FF7F205BF83A7418C850723A2AC
:10347000F18C25BF09476398E70083A7018385077F
:1034800023A8F1822DBF0D47E39BE7F283A7C184F8
:10349000850723A6F18425B7211122C826C606CAAE
:1034A0002AC42EC232C0A3860182238601822388C9
:1034B0000184C529024632852935611126C2970447
:1034C00000209384A4D023A0140023A2540023A49A
:1034D000640023A6740088C8CCC890CCD4CC98D003
:1034E000DCD092442101B750555593805055B752C6
:1034F0005555938252553753555513035355B7536A
:103500005555938353553755555513055555B7554F
:103510005555938555553756555513065655B75637
:103520005555938656553757555513075755B75721
:10353000555593875755511122C226C437E400E0F0
:10354000C164232094201244A244310101000100EF
:1035500001000100611126C29384018823A0140098
:1035600023A2540023A4640023A6740088C8CCC8F6
:1035700090CCD4CC98D0DCD092442101611126C2E9
:1035800097040020938484C483A0040083A2440091
:1035900003A3840083A3C4008848CC48904CD44C37
:1035A0009850DC5092442101B75555559385555597
:1035B00013850188313B02469246224723AEA18201
:1035C000854783C5C182639DF50083C501856399E5
:1035D000F5004244D240B244B6853A85610129B330
:1035E0000100C5B771651301C1FD1305052006D0A3
:1035F00022CE26CCEF0070507926792679261385C5
:10360000018BEF00503483A5018B371500001305A3
:10361000C522EF00D0131384018B4C4037150000F6
:1036200013050524EF00B0120C44371500001305F4
:103630004525EF00D0114C443715000013058526B1
:10364000EF00F010371500001305C527EF005012EA
:1036500023A2018C23A4018423A4018A23A801822C
:1036600023A60184014732C036C23EC48146930777
:1036700040063A8681453E8536CA3AC83EC6293D4F
:1036800083C5D1820946B2474247D2466397C500F7
:10369000130640066368D600850685071306803E3C
:1036A000E399C7FC0507BD47E312F7FC3715000097
:1036B00013058528EF00D00B83A5418C371500003A
:1036C00013054529EF00B00883A581843715000054
:1036D0001305452AEF00B007824737150000130590
:1036E000452B83A5818AEF0090069247371500008D
:1036F0001305452C83A50183EF007005A2473715FC
:1037000000001305452D83A5C184EF00500483A755
:10371000818491CF371500001305452EEF00500529
:10372000371500001305452FEF00900415B7371526
:1037300000001305C52EDDB7EF00F04623AAA184D3
:10374000EF00D04623A4A182EF00B04623AAA182B5
:10375000B7F700E023A00700D843799BD8C30547FB
:103760002386E182B7E700E083A607304567639FC1
:10377000E6040D47A386E182B71012129380202140
:10378000B71212129382222137131212130323212C
:10379000B713121293832321371512121305252113
:1037A000B7151212938525213716121213062621FA
:1037B000B7161212938626213717121213072721E4
:1037C000B7171212938727217300203083C6018513
:1037D0000547E391E6FA094771BFEF00D03C23A605
:1037E000A18AEF00B03C23ACA182EF00903C23A063
:1037F000A18405472388E184B71016169380606181
:10380000B71216169382626137131616130363619B
:10381000B713161693836361371516161305656182
:10382000B715161693856561371616161306666169
:10383000B716161693866661371716161307676153
:10384000B717161693876761010001000100010098
:10385000611126C29384818523A0140023A2540001
:1038600023A4640023A6740088C8CCC890CCD4CC10
:1038700098D0DCD092442101B71516169385656166
:1038800013858185B13423A2A184730020303715BC
:10389000000013058521E92D0100FDBFB717024087
:1038A0009843B706FFFC61111367170098C3D8430C
:1038B00037060200758FD8C39843B706F7FEFD168A
:1038C000758F98C39843B706FCFFFD16758F98C394
:1038D000D843C176FD16758FD8C337079F0098C7A8
:1038E00002C002C29843C166558F98C3B716024002
:1038F00005679C42F18F3EC2824785073EC09247D2
:1039000081E78247E397E7FEB71702409C4313978E
:10391000E7006358070685473EC212478547631094
:10392000F706B72702409843C176FD16719B98C3EE
:1039300098431367270098C3B7170240D843D8C3EA
:10394000D843758FD8C3D843C166558FD8C3984321
:10395000B7060001558F98C3984393166700E3DDBF
:1039600006FED843B7160240719BD8C3D8431367ED
:103970002700D8C32147DC42B18BE39EE7FE21013B
:10398000828002C259BF82808280B7E700E023862E
:103990000740130700FC2388E740456723A0E71092
:1039A0008280B7F700E023A0070023A4070088CB9C
:1039B0001D4798C38280411106C62EC00DCD184107
:1039C000AA8705C358417D5511CB8546631BD70097
:1039D00098472300070023A207000545B240410194
:1039E00082809847824614A39847050798C7D84312
:1039F0007D17D8C3DDB705468A85EF00B015F1BF46
:103A0000011122CC2EC206CE26CA2A8481479305F4
:103A10000002634506029245BE95838505008DE54B
:103A200063D8C70263D4E702198E1305000293F529
:103A300026002AC089C501E7930500032EC0858AA8
:103A4000814495EAB2840DA08507F1B71D8EF1BFC0
:103A50000146E1BF824522853AC832C63EC4A13F35
:103A6000A24732464247FD14E34690FEB2846353B8
:103A700006008144058E63C7E702A6879246338716
:103A8000974036978305070095EDB2846344900410
:103A9000635306000146F2406244D2443305F60007
:103AA000056182801D8FBA8793050003228532C885
:103AB0003EC63AC40937B24722474246FD17EDF7E2
:103AC000BA9465BF228532C63EC4F535A247324658
:103AD00085076DB78245228532C43EC2E93DFD149B
:103AE0002246924765B7397106DE22DC26DA3EC2ED
:103AF00032833A8689ED92469307000301476C08AA
:103B0000FC86FD3DF2506254D25421618280AA8429
:103B10003684AE8791CA294701446317E30063D511
:103B20000500B307B04005448646A3090102130708
:103B30003103938666FC36C49A853E8532CA3AC8FC
:103B40001AC63EC0EFF00FF3A54682473243424704
:103B5000524663D4A600A246369513050503930684
:103B6000F7FFA30FA7FE9A853E8532CC3ACA1AC842
:103B70003EC636C0EFF04FEDB24742435247624671
:103B800063F9670401CC29CA9247898BB1C79305B1
:103B9000D002268532C4053522467D169247918B88
:103BA00095C306479307100632C493050003268584
:103BB000631EF7020935930580072685ED3B2246F3
:103BC000090479161647924682452685153D2295A9
:103BD00015BFAA8702478DB782469307D0020144DA
:103BE000A38FF6FE9307E7FF3EC04DBFE933930571
:103BF0008005E1B70145828001458280130181FD86
:103C000022D026CE06D22AC4AE82328402C6814495
:103C10008385020089EDA24781C781453E85613BCE
:103C2000925002542685F244130181028280930748
:103C300050026388F500224516C88504AD3BC24298
:103C400039A88387120013871200639CB7002245AE
:103C5000930550023AC8853342478504BA828502EB
:103C600045BFD5DB9306B0026389D70463C8F6006D
:103C7000930630026386D704814705A09306D002DD
:103C8000638AD70093060003E398D7FE13872200C8
:103C9000894721A013872200854783060700130662
:103CA000B0026383C6046341D60213063002638BFD
:103CB000C602BA820145A54681A0138722006DBFC6
:103CC000138722009147D1BF1306D0026389C60033
:103CD00013060003E39FC6FC93E7270031A0050706
:103CE0008547C1BF93E747000507E1B713162500D5
:103CF000329506053A95850203860200130706FDF4
:103D00009375F70FE3F4B6FE1307E0029946631EBE
:103D1000E60085028146A54503860200130606FDDE
:103D20001377F60F63F5E50236C603870200130624
:103D3000A006630DC70A6343E6021306C0046307C7
:103D4000C70A13068006630CC70881452DA8139780
:103D50002600BA968606B29685027DBF13064007F6
:103D60006306C7081306A0076302C7081306C00648
:103D70008145631AC700038612008D456314E6006F
:103D8000850291458502038602009303000613070E
:103D9000100663C4C300130710049303700663C4C2
:103DA000C30693035006635376189303700463C1EC
:103DB000C30493055004635BB61613073004E31085
:103DC000E6EA18409303440016CA230CE1001EC81B
:103DD000A30C01000147BE862A862C0849A8038649
:103DE00012008145E311E6FA890271BF8502B1BF75
:103DF00093063006E307D6FC63CEC606930680051D
:103E00006303D602A9BD930630076304D60463CBCF
:103E1000C6029306F0066302D60E9306000793E7E8
:103E20004700E31ED6E29146639FD50A93038400C0
:103E30000C40504016CA3AC23EC01EC8AA8701476D
:103E4000C146B9A0930650076308D60693068007BB
:103E500045BF1840B7160000930344009385864C75
:103E600011C3BA85324716CA1EC8BE862A862245A5
:103E7000413E0DA091466394D502930384000C400B
:103E8000504016CA3AC23EC01EC8AA870547A94676
:103E900022458D33C243AA941E84D242C9B3B2468E
:103EA0000C4016C836C23AC011042A8785462946F6
:103EB00022451539AA9461B39146639DD5009303B9
:103EC00084000C40504016CA3AC23EC01EC8AA87A1
:103ED000014775BFB2460C4016C836C23AC011043D
:103EE0002A878146E9B7B24616C80C40414636C219
:103EF0003AC011042A87814665BF9146639ED5006A
:103F0000930384000C40504016CA3AC23EC01EC8FB
:103F1000AA870147A146ADBFB2460C4016C836C2BB
:103F20003AC011042A878146214659B70C4013062E
:103F3000840040403AC22A87224532C83EC02286C9
:103F4000B687A94616CA4D39AA944244B9B7130197
:103F5000C1FD2EC832CAAA851008014506C636CC56
:103F60003ACE3ED032C05939B2401301410282806C
:103F7000411122C426C206C61C21AA840144DC8148
:103F800083073100050491EFA947930531000546E9
:103F90000145DC81C1262285B24022449244410180
:103FA000828005469305310001456D26B387840064
:103FB0009C23DC81F1B701A001A001A001A001A018
:103FC00001A001A001A001A001A001A001A001A0E9
:103FD00001A001A001A001A001A001A001A001A0D9
:103FE00001A001A001A001A001A001A09701002053
:103FF0009381C19D138181FD17050000130585671D
:1040000097F5FF1F9385051A17F6FF1F1306061C69
:1040100063FAC5008322050023A055001105910510
:10402000E3EAC5FE17F5FF1F1305451A9385818C3A
:104030006377B500232005001105E36DB5FE9302FB
:104040000008739002308D427390428097F2FFFF18
:104050009382421593E2320073905230EFF01F8446
:1040600097F2FFFF9382425873901234730020300E
:104070009C45611122C226C013F7070113F3F70014
:1040800001C7D8413363E30092211377F60F29C7A4
:1040900083230500014713048002930480048546AE
:1040A000B395E600B376B6006392D502931227006B
:1040B000BD46B396560093C6F6FFB3F37600B3122F
:1040C0005300B3E37200639787064CC90507A14606
:1040D000E317D7FC232075001307F00F6378C7049C
:1040E00083234500A14613048002930480040547FE
:1040F000B312D700337756006394E2021397260079
:104100000117BD45B395E50093C5F5FFB3F3750001
:104110003317E300B363770063928702232A5500C5
:1041200085064147E395E6FC23227500124482444C
:1041300021018280E39C97F80CC949BFE39297FE66
:1041400023285500F1BF371702405C43511122C2AA
:1041500006C4B18B91462A846385D700A146638A41
:10416000D706B7376E01938707601CC0B7160240A9
:10417000DC42918313F7F700B707002093874701CC
:10418000BA978C23DC42184093F5F50F93F7070894
:104190003355B70081E73A85EFF00F8B48C008C46C
:1041A00048C4B7170240DC438D46AD8313F7F701CF
:1041B000CD8B63F3F6005117B707002093870700F4
:1041C000BA978C23EFF04F8808C8A24012443101FF
:1041D00082805C43B777DC02938707C079B799C5C3
:1041E000371702401C4F5D8D08CF8280B717024001
:1041F000984F1345F5FF798D88CF82801629F57782
:10420000FD17F58FF6211301C1FD22CE06D026CC75
:10421000D58FDA251EA95625FD779387379FF58F11
:10422000D6212A842EC0D58F9625D58FB625D58F39
:104230005EA55E29C207C18393F7F7CF5D8F5AA9A8
:1042400048001137B74701409387078082456315BF
:10425000F406C2475A24139517003E9542070E05EF
:1042600041873E958C41635B07048605EFE0DFFDE7
:10427000930540062AC0EFE03FFD824793144500B6
:10428000930540063E85EFE0FFFE5E24C207C1872E
:1042900063D807020E059305400613052503EFE0DA
:1042A000BFFA1D89C98CC204C18006A48250724421
:1042B000E244130141028280B24769BF8A057DB79B
:1042C00012059305400613052503EFE0FFF73D892E
:1042D000D1BF91C55E250967D98F5EA582805A2519
:1042E000F977FD17F98FD5BF93F5F51F4EA18280A1
:1042F0000A216D8D3335A0008280130181FD22D00B
:104300002A84116585451305050206D2C93D930728
:1043100000027C80371501408D473EC28A85E14707
:10432000130505403EC4A93322C637440140B707F0
:1043300008006C00130504803ECA02C8231C01005B
:10434000753D130504808545693792500254130169
:1043500081028280411122C426C206C6AE84014475
:10436000635DC402B7470140138707803A85930510
:10437000000432C0B53FB7470140138707800246AB
:1043800075D53387840083050700138507800504EE
:10439000C205C181913F0246E1B7B2402244924436
:1043A0003285410182807325103482807325203448
:1043B00082807325303482805B547261705D20741A
:1043C00072617020656E7472792000005379737485
:1043D000656D636C6F636B3A256420487A0D0A0043
:1043E00048434C4B202020202020203A25642048A0
:1043F0007A0D0A0050434C4B312020202020203AD7
:10440000256420487A0D0A0050434C4B322020206E
:104410002020203A256420487A0D0A0054657374E0
:1044200020537461727420005465737420456E6467
:10443000200000005B7061737365645D202530644B
:10444000200A00005B6661696C65645D202530644C
:10445000200A00005B745F625F735D20253064207A
:104460000A0000005B745F615F735D20253064208B
:104470000A0000005B745F695F735D202530642073
:104480000A0000004552520D0000000053554343FE
:104490000D0000002B2B2B2B2B2B2B2B2B2B2B2B0B
:1044A0002B2B2B2B2B2B2B2B2B2B2B2B2B2B0D00A5
:1044B0005B4750525D20783120203D202523782015
:1044C0000A0000005B4750525D20783520203D20D7
:1044D000252378200A0000005B4750525D20783683
:1044E00020203D20252378200A0000005B47505201
:1044F0005D20783720203D20252378200A00000009
:104500005B4750525D20783130203D2025237820B4
:104510000A0000005B4750525D20783131203D2079
:10452000252378200A0000005B4750525D20783137
:1045300032203D20252378200A0000005B4750529E
:104540005D20783133203D20252378200A000000AB
:104550005B4750525D20783134203D202523782060
:104560000A0000005B4750525D20783135203D2025
:10457000252378200A0000005B4750525F505245C7
:10458000454D5D20783120203D20252378200A00EC
:104590005B4750525F505245454D5D207835202095
:1045A0003D20252378200A005B4750525F5052453A
:1045B000454D5D20783620203D20252378200A00B7
:1045C0005B4750525F505245454D5D207837202063
:1045D0003D20252378200A005B4750525F5052450A
:1045E000454D5D20783130203D20252378200A007C
:1045F0005B4750525F505245454D5D207831312028
:104600003D20252378200A005B4750525F505245D9
:10461000454D5D20783132203D20252378200A0049
:104620005B4750525F505245454D5D2078313320F5
:104630003D20252378200A005B4750525F505245A9
:10464000454D5D20783134203D20252378200A0017
:104650005B4750525F505245454D5D2078313520C3
:104660003D20252378200A00286E756C6C290000F7
:104670000204060804080C1008101820102030400E
:1046800020406080010203040506070801020304BC
:1046900005060708000000006F00D064000000005D
:1046A0001E010000EE0600000000000000000000F7
:1046B00000000000000000000000000000000000FA
:1046C000000000000000000098050000000000004D
:1046D0001C0E0000000000003A060000200E000042
:1046E000220E0000240E0000260E0000280E0000FE
:1046F0002A0E00002C0E00002E0E0000300E0000CE
:10470000320E0000340E0000360E0000380E00009D
:104710003A0E00003C0E00003E0E0000400E00006D
:10472000420E0000440E0000460E0000480E00003D
:104730004A0E000000000000634E050263C305043A
:104740002E86AA857D5515C285466378B6006356C8
:10475000C00006068606E36CB6FE014563E4C500AC
:10476000918D558D85820582F5FA82808682C93FBA
:104770002E8582823305A04063D70500B305B04083
:10478000C1B7B305B0408682653F3305A040828241
:10479000868263C70500634905005D372E858282E6
:1047A000B305B040E35B05FE3305A040513F330540
:1047B000B040828200007300203081476393A700DD
:1047C000828001008507DDBFAA87130785020145A6
:1047D00094436383B60005459107E39BE7FE82801F
:1047E000411126C203A7C18306C622C48547631BA5
:1047F000F70883A5018837150000130505311384D8
:104800000188EF0050444C40371500001305453235
:10481000EF0070430C443715000013058533EF009B
:1048200090424C44371500001305C534EF00B041E9
:104830000C483715000013050536EF00D0404C48F2
:104840003715000013054537EF00F03F0C4C3715C6
:10485000000013058538EF00103F4C4C3715000061
:104860001305C539EF00303E0C5037150000130515
:10487000053BEF00503D4C50371500001305453CFB
:10488000EF00703C83A741848546638BD70203A762
:10489000C18385476316F70C83A78184850723A40A
:1048A000F18483C7D18205476392E70C83A7818A8D
:1048B000850723A4F18AB2402244924441018280B8
:1048C00083A58185371500001305853D3EC01384FF
:1048D0008185EF0050374C40371500001305053F28
:1048E000EF0070360C443715000013058540EF00CB
:1048F00090354C443715000013050542EF00B034E5
:104900000C483715000013058543EF00D0334C48A1
:104910003715000013050545EF00F0320C4C371534
:10492000000013058546EF0010324C4C371500008F
:1049300013050548EF0030310C5037150000130502
:104940008549EF0050304C50371500001305054BDA
:10495000EF00702F03A741848247E30FF7F205BFF2
:1049600083A7418C850723A2F18C25BF0947639853
:10497000E70083A70183850723A8F1822DBF0D4798
:10498000E39BE7F283A7C184850723A6F18425B7BB
:10499000211122C826C606CA2AC42EC232C0A38646
:1049A00001822386018223880184C529024632853B
:1049B0002935611126C2970400209384A4D023A036
:1049C000140023A2540023A4640023A6740088C802
:1049D000CCC890CCD4CC98D0DCD092442101B75034
:1049E000555593805055B75255559382525537536C
:1049F000555513035355B753555593835355375551
:104A0000555513055555B755555593855555375635
:104A1000555513065655B75655559386565537571F
:104A2000555513075755B757555593875755511136
:104A300022C226C437E400E0C1642320942012443B
:104A4000A24431010100010001000100611126C2F0
:104A50009384018823A0140023A2540023A464009B
:104A600023A6740088C8CCC890CCD4CC98D0DCD015
:104A700092442101611126C297040020938484C4CA
:104A800083A0040083A2440003A3840083A3C40082
:104A90008848CC48904CD44C9850DC50924421012A
:104AA000B75555559385555513850188313B0246B9
:104AB0009246224723AEA182854783C5C182639D6A
:104AC000F50083C501856399F5004244D240B244A4
:104AD000B6853A85610129B30100C5B77165130137
:104AE000C1FD1305052006D022CE26CCEF00705064
:104AF0007926792679261385018BEF00503483A51A
:104B0000018B371500001305C522EF00D013138465
:104B1000018B4C403715000013050524EF00B0123F
:104B20000C443715000013054525EF00D0114C4407
:104B30003715000013058526EF00F010371500002B
:104B40001305C527EF00501223A2018C23A4018472
:104B500023A4018A23A8018223A60184014732C02D
:104B600036C23EC48146930740063A8681453E855B
:104B700036CA3AC83EC6293D83C5D1820946B247E6
:104B80004247D2466397C500130640066368D600C5
:104B9000850685071306803EE399C7FC0507BD47D8
:104BA000E312F7FC3715000013058528EF00D00B42
:104BB00083A5418C3715000013054529EF00B00887
:104BC00083A58184371500001305452AEF00B0073F
:104BD0008247371500001305452B83A5818AEF0016
:104BE00090069247371500001305452C83A50183D5
:104BF000EF007005A247371500001305452D83A56A
:104C0000C184EF00500483A7818491CF3715000041
:104C10001305452EEF005005371500001305452FED
:104C2000EF00900415B7371500001305C52EDDB74A
:104C3000EF00F04623AAA184EF00D04623A4A1826E
:104C4000EF00B04623AAA182B7F700E023A0070037
:104C5000D843799BD8C305472386E182B7E700E0B4
:104C600083A607304567639FE6040D47A386E1826C
:104C7000B710121293802021B712121293822221B0
:104C80003713121213032321B71312129383232114
:104C90003715121213052521B715121293852521F8
:104CA0003716121213062621B716121293862621E2
:104CB0003717121213072721B717121293872721CC
:104CC0007300203083C601850547E391E6FA094762
:104CD00071BFEF00D03C23A6A18AEF00B03C23AC0B
:104CE000A182EF00903C23A0A18405472388E184A2
:104CF000B710161693806061B71216169382626120
:104D00003713161613036361B71316169383636183
:104D10003715161613056561B71516169385656167
:104D20003716161613066661B71616169386666151
:104D30003717161613076761B7171616938767613B
:104D40000100010001000100611126C293848185E8
:104D500023A0140023A2540023A4640023A67400FB
:104D600088C8CCC890CCD4CC98D0DCD09244210157
:104D7000B71516169385656113858185B13423A215
:104D8000A184730020303715000013058521E92D1B
:104D90000100FDBFB71702409843B706FFFC611141
:104DA0001367170098C3D84337060200758FD8C31E
:104DB0009843B706F7FEFD16758F98C39843B7065C
:104DC000FCFFFD16758F98C3D843C176FD16758F0D
:104DD000D8C337079F0098C702C002C29843C16674
:104DE000558F98C3B716024005679C42F18F3EC2AB
:104DF000824785073EC0924781E78247E397E7FEF7
:104E0000B71702409C431397E7006358070685478E
:104E10003EC2124785476310F706B7270240984302
:104E2000C176FD16719B98C398431367270098C3FA
:104E3000B7170240D843D8C3D843758FD8C3D843D7
:104E4000C166558FD8C39843B7060001558F98C3E4
:104E5000984393166700E3DD06FED843B716024079
:104E6000719BD8C3D84313672700D8C32147DC42BE
:104E7000B18BE39EE7FE2101828002C259BF82808E
:104E80008280B7E700E023860740130700FC2388F1
:104E9000E740456723A0E7108280B7F700E023A032
:104EA000070023A4070088CB1D4798C382804111C7
:104EB00006C62EC00DCD1841AA8705C358417D55A1
:104EC00011CB8546631BD70098472300070023A218
:104ED00007000545B240410182809847824614A3ED
:104EE0009847050798C7D8437D17D8C3DDB705464F
:104EF0008A85EF00B015F1BF011122CC2EC206CE7B
:104F000026CA2A848147930500026345060292451A
:104F1000BE95838505008DE563D8C70263D4E7029B
:104F2000198E1305000293F526002AC089C501E7F2
:104F3000930500032EC0858A814495EAB2840DA0B2
:104F40008507F1B71D8EF1BF0146E1BF824522857D
:104F50003AC832C63EC4A13FA24732464247FD147A
:104F6000E34690FEB284635306008144058E63C716
:104F7000E702A68792463387974036978305070056
:104F800095EDB28463449004635306000146F240F9
:104F90006244D2443305F600056182801D8FBA87D2
:104FA00093050003228532C83EC63AC40937B2478A
:104FB00022474246FD17EDF7BA9465BF228532C6F7
:104FC0003EC4F535A247324685076DB78245228536
:104FD00032C43EC2E93DFD142246924765B739719D
:104FE00006DE22DC26DA3EC232833A8689ED92461C
:104FF0009307000301476C08FC86FD3DF2506254A4
:10500000D25421618280AA843684AE8791CA29470E
:1050100001446317E30063D50500B307B0400544BE
:105020008646A309010213073103938666FC36C442
:105030009A853E8532CA3AC81AC63EC0EFF00FF3D1
:10504000A546824732434247524663D4A600A24651
:105050003695130505039306F7FFA30FA7FE9A8560
:105060003E8532CC3ACA1AC83EC636C0EFF04FED84
:10507000B24742435247624663F9670401CC29CAEA
:105080009247898BB1C79305D002268532C4053576
:1050900022467D169247918B95C3064793071006CB
:1050A00032C4930500032685631EF7020935930574
:1050B00080072685ED3B224609047916164792465D
:1050C00082452685153D229515BFAA8702478DB7D3
:1050D00082469307D0020144A38FF6FE9307E7FFB1
:1050E0003EC04DBFE93393058005E1B7014582809D
:1050F00001458280130181FD22D026CE06D22AC42A
:10510000AE82328402C681448385020089EDA247C3
:1051100081C781453E85613B925002542685F24409
:10512000130181028280930750026388F5002245B3
:1051300016C88504AD3BC24239A883871200138785
:105140001200639CB7002245930550023AC885338C
:1051500042478504BA82850245BFD5DB9306B0027B
:105160006389D70463C8F600930630026386D704C8
:10517000814705A09306D002638AD70093060003F7
:10518000E398D7FE13872200894721A013872200C6
:105190008547830607001306B0026383C604634194
:1051A000D60213063002638BC602BA820145A546B9
:1051B00081A0138722006DBF138722009147D1BFC2
:1051C0001306D0026389C60013060003E39FC6FCE2
:1051D00093E7270031A005078547C1BF93E7470044
:1051E0000507E1B713162500329506053A958502A5
:1051F00003860200130706FD9375F70FE3F4B6FE6E
:105200001307E0029946631EE60085028146A54524
:1052100003860200130606FD1377F60F63F5E50219
:1052200036C6038702001306A006630DC70A634350
:10523000E6021306C0046307C70A13068006630C60
:10524000C70881452DA813972600BA968606B29600
:1052500085027DBF130640076306C7081306A00733
:105260006302C7081306C0068145631AC700038698
:1052700012008D456314E600850291458502038680
:105280000200930300061307100663C4C30013074C
:1052900010049303700663C4C3069303500663535C
:1052A00076189303700463C1C30493055004635BD1
:1052B000B61613073004E310E6EA184093034400DF
:1052C00016CA230CE1001EC8A30C01000147BE86CC
:1052D0002A862C0849A8038612008145E311E6FAC4
:1052E000890271BF8502B1BF93063006E307D6FC81
:1052F00063CEC606930680056303D602A9BD930656
:1053000030076304D60463CBC6029306F00663023B
:10531000D60E9306000793E74700E31ED6E29146B8
:10532000639FD50A930384000C40504016CA3AC2CA
:105330003EC01EC8AA870147C146B9A093065007C0
:105340006308D6069306800745BF1840B7160000CD
:10535000930344009385864C11C3BA85324716CA1D
:105360001EC8BE862A862245413E0DA09146639402
:10537000D502930384000C40504016CA3AC23EC086
:105380001EC8AA870547A94622458D33C243AA9461
:105390001E84D242C9B3B2460C4016C836C23AC0C7
:1053A00011042A878546294622451539AA9461B3F6
:1053B0009146639DD500930384000C40504016CA6B
:1053C0003AC23EC01EC8AA87014775BFB2460C400C
:1053D00016C836C23AC011042A878146E9B7B246D8
:1053E00016C80C40414636C23AC011042A8781468D
:1053F00065BF9146639ED500930384000C405040E6
:1054000016CA3AC23EC01EC8AA870147A146ADBF10
:10541000B2460C4016C836C23AC011042A878146EB
:10542000214659B70C401306840040403AC22A87EF
:10543000224532C83EC02286B687A94616CA4D39D3
:10544000AA944244B9B71301C1FD2EC832CAAA8535
:105450001008014506C636CC3ACE3ED032C0593986
:10546000B240130141028280411122C426C206C605
:105470001C21AA840144DC8183073100050491EFDB
:10548000A9479305310005460145DC81C1262285E7
:10549000B240224492444101828005469305310086
:1054A00001456D26B38784009C23DC81F1B701A000
:1054B00001A001A001A001A001A001A001A001A0E4
:1054C00001A001A001A001A001A001A001A001A0D4
:1054D00001A001A001A001A001A001A001A001A0C4
:1054E00001A001A0970100209381C19D138181FD3E
:1054F000170500001305856797F5FF1F9385051AAB
:1055000017F6FF1F1306061C63FAC5008322050069
:1055100023A0550011059105E3EAC5FE17F5FF1F0D
:105520001305451A9385818C6377B5002320050008
:105530001105E36DB5FE93020008739002308D42B1
:105540007390428097F2FFFF9382421593E23200FC
:1055500073905230EFF01F8497F2FFFF938242580E
:1055600073901234730020309C45611122C226C012
:1055700013F7070113F3F70001C7D8413363E300C2
:1055800092211377F60F29C78323050001471304DF
:105590008002930480048546B395E600B376B60096
:1055A0006392D50293122700BD46B396560093C668
:1055B000F6FFB3F37600B3125300B3E372006397C0
:1055C00087064CC90507A146E317D7FC23207500C1
:1055D0001307F00F6378C70483234500A146130423
:1055E0008002930480040547B312D7003377560036
:1055F0006394E202139726000117BD45B395E500B9
:1056000093C5F5FFB3F375003317E300B363770079
:1056100063928702232A550085064147E395E6FCFD
:10562000232275001244824421018280E39C97F872
:105630000CC949BFE39297FE23285500F1BF3717E5
:1056400002405C43511122C206C4B18B91462A84A8
:105650006385D700A146638AD706B7376E01938763
:1056600007601CC0B7160240DC42918313F7F700B5
:10567000B707002093874701BA978C23DC42184074
:1056800093F5F50F93F707083355B70081E73A858F
:10569000EFF00F8B48C008C448C4B7170240DC4382
:1056A0008D46AD8313F7F701CD8B63F3F6005117E9
:1056B000B707002093870700BA978C23EFF04F8835
:1056C00008C8A2401244310182805C43B777DC02F3
:1056D000938707C079B799C5371702401C4F5D8D76
:1056E00008CF8280B7170240984F1345F5FF798D98
:1056F00088CF82801629F577FD17F58FF6211301E3
:10570000C1FD22CE06D026CCD58FDA251EA956257E
:10571000FD779387379FF58FD6212A842EC0D58FAA
:105720009625D58FB625D58F5EA55E29C207C18384
:1057300093F7F7CF5D8F5AA948001137B74701405B
:105740009387078082456315F406C2475A24139550
:1057500017003E9542070E0541873E958C41635BDD
:1057600007048605EFE0DFFD930540062AC0EFE061
:105770003FFD824793144500930540063E85EFE0C8
:10578000FFFE5E24C207C18763D807020E0593059A
:10579000400613052503EFE0BFFA1D89C98CC2043A
:1057A000C18006A482507244E24413014102828007
:1057B000B24769BF8A057DB71205930540061305F8
:1057C0002503EFE0FFF73D89D1BF91C55E2509674D
:1057D000D98F5EA582805A25F977FD17F98FD5BF3D
:1057E00093F5F51F4EA182800A216D8D3335A000FF
:1057F0008280130181FD22D02A841165854513051D
:10580000050206D2C93D930700027C80371501408E
:105810008D473EC28A85E147130505403EC4A93342
:1058200022C637440140B70708006C001305048006
:105830003ECA02C8231C0100753D1305048085453E
:10584000693792500254130181028280411122C4AF
:1058500026C206C6AE840144635DC402B747014058
:10586000138707803A859305000432C0B53FB747D8
:10587000014013870780024675D53387840083056E
:105880000700138507800504C205C181913F0246C8
:10589000E1B7B240224492443285410182807325AF
:1058A00010348280732520348280732530348280C6
:1058B0005B547261705D207472617020656E7472E9
:1058C0007920000053797374656D636C6F636B3A74
:1058D000256420487A0D0A0048434C4B20202020A4
:1058E0002020203A256420487A0D0A0050434C4B72
:1058F000312020202020203A256420487A0D0A00FB
:1059000050434C4B322020202020203A2564204850
:105910007A0D0A0054657374205374617274200008
:105920005465737420456E64200000005B706173E1
:105930007365645D20253064200A00005B66616940
:105940006C65645D20253064200A00005B745F6232
:105950005F735D20253064200A0000005B745F6186
:105960005F735D20253064200A0000005B745F696E
:105970005F735D20253064200A0000004552520DFF
:1059800000000000535543430D0000002B2B2B2B30
:105990002B2B2B2B2B2B2B2B2B2B2B2B2B2B2B2B57
:1059A0002B2B2B2B2B2B0D005B4750525D2078317E
:1059B00020203D20252378200A0000005B4750521C
:1059C0005D20783520203D20252378200A00000026
:1059D0005B4750525D20783620203D2025237820DB
:1059E0000A0000005B4750525D20783720203D20A0
:1059F000252378200A0000005B4750525D20783153
:105A000030203D20252378200A0000005B475052BB
:105A10005D20783131203D20252378200A000000C8
:105A20005B4750525D20783132203D20252378207D
:105A30000A0000005B4750525D20783133203D2042
:105A4000252378200A0000005B4750525D20783102
:105A500034203D20252378200A0000005B47505267
:105A60005D20783135203D20252378200A00000074
:105A70005B4750525F505245454D5D2078312020A4
:105A80003D20252378200A005B4750525F50524545
:105A9000454D5D20783520203D20252378200A00C3
:105AA0005B4750525F505245454D5D20783620206F
:105AB0003D20252378200A005B4750525F50524515
:105AC000454D5D20783720203D20252378200A0091
:105AD0005B4750525F505245454D5D207831302034
